{
  "contractName": "AppFactory",
  "abi": [
    {
      "constant": false,
      "inputs": [],
      "name": "unpause",
      "outputs": [],
      "payable": false,
      "stateMutability": "nonpayable",
      "type": "function"
    },
    {
      "constant": true,
      "inputs": [],
      "name": "paused",
      "outputs": [
        {
          "name": "",
          "type": "bool"
        }
      ],
      "payable": false,
      "stateMutability": "view",
      "type": "function"
    },
    {
      "constant": true,
      "inputs": [],
      "name": "appFee",
      "outputs": [
        {
          "name": "",
          "type": "uint256"
        }
      ],
      "payable": false,
      "stateMutability": "view",
      "type": "function"
    },
    {
      "constant": false,
      "inputs": [],
      "name": "pause",
      "outputs": [],
      "payable": false,
      "stateMutability": "nonpayable",
      "type": "function"
    },
    {
      "constant": true,
      "inputs": [],
      "name": "owner",
      "outputs": [
        {
          "name": "",
          "type": "address"
        }
      ],
      "payable": false,
      "stateMutability": "view",
      "type": "function"
    },
    {
      "constant": true,
      "inputs": [
        {
          "name": "",
          "type": "uint256"
        }
      ],
      "name": "appToOwner",
      "outputs": [
        {
          "name": "",
          "type": "address"
        }
      ],
      "payable": false,
      "stateMutability": "view",
      "type": "function"
    },
    {
      "constant": true,
      "inputs": [
        {
          "name": "contractName",
          "type": "string"
        },
        {
          "name": "migrationId",
          "type": "string"
        }
      ],
      "name": "isMigrated",
      "outputs": [
        {
          "name": "",
          "type": "bool"
        }
      ],
      "payable": false,
      "stateMutability": "view",
      "type": "function"
    },
    {
      "constant": false,
      "inputs": [
        {
          "name": "newOwner",
          "type": "address"
        }
      ],
      "name": "transferOwnership",
      "outputs": [],
      "payable": false,
      "stateMutability": "nonpayable",
      "type": "function"
    },
    {
      "anonymous": false,
      "inputs": [
        {
          "indexed": false,
          "name": "_creationTime",
          "type": "uint256"
        },
        {
          "indexed": false,
          "name": "_creator",
          "type": "address"
        },
        {
          "indexed": true,
          "name": "_appId",
          "type": "uint256"
        },
        {
          "indexed": false,
          "name": "_appName",
          "type": "string"
        },
        {
          "indexed": false,
          "name": "_licenseFees",
          "type": "uint256[]"
        },
        {
          "indexed": false,
          "name": "_licenseValidateTimes",
          "type": "uint256[]"
        }
      ],
      "name": "NewApp",
      "type": "event"
    },
    {
      "anonymous": false,
      "inputs": [
        {
          "indexed": false,
          "name": "_updateTime",
          "type": "uint256"
        },
        {
          "indexed": false,
          "name": "_appOwner",
          "type": "address"
        },
        {
          "indexed": true,
          "name": "_appId",
          "type": "uint256"
        },
        {
          "indexed": false,
          "name": "_licenseIds",
          "type": "uint256[]"
        },
        {
          "indexed": false,
          "name": "_licenseOfflines",
          "type": "bool[]"
        }
      ],
      "name": "UpdateAppLicenses",
      "type": "event"
    },
    {
      "anonymous": false,
      "inputs": [
        {
          "indexed": false,
          "name": "_updateTime",
          "type": "uint256"
        },
        {
          "indexed": false,
          "name": "_appOwner",
          "type": "address"
        },
        {
          "indexed": false,
          "name": "_preFee",
          "type": "uint256"
        },
        {
          "indexed": false,
          "name": "_newFee",
          "type": "uint256"
        }
      ],
      "name": "UpdateGlobalAppCreationFee",
      "type": "event"
    },
    {
      "anonymous": false,
      "inputs": [],
      "name": "Pause",
      "type": "event"
    },
    {
      "anonymous": false,
      "inputs": [],
      "name": "Unpause",
      "type": "event"
    },
    {
      "anonymous": false,
      "inputs": [
        {
          "indexed": true,
          "name": "previousOwner",
          "type": "address"
        },
        {
          "indexed": true,
          "name": "newOwner",
          "type": "address"
        }
      ],
      "name": "OwnershipTransferred",
      "type": "event"
    },
    {
      "anonymous": false,
      "inputs": [
        {
          "indexed": false,
          "name": "contractName",
          "type": "string"
        },
        {
          "indexed": false,
          "name": "migrationId",
          "type": "string"
        }
      ],
      "name": "Migrated",
      "type": "event"
    },
    {
      "constant": false,
      "inputs": [
        {
          "name": "_sender",
          "type": "address"
        }
      ],
      "name": "initialize",
      "outputs": [],
      "payable": false,
      "stateMutability": "nonpayable",
      "type": "function"
    },
    {
      "constant": false,
      "inputs": [
        {
          "name": "_sender",
          "type": "address"
        },
        {
          "name": "_appFee",
          "type": "uint256"
        }
      ],
      "name": "initialize",
      "outputs": [],
      "payable": false,
      "stateMutability": "nonpayable",
      "type": "function"
    },
    {
      "constant": false,
      "inputs": [
        {
          "name": "_name",
          "type": "string"
        }
      ],
      "name": "createFreeApp",
      "outputs": [],
      "payable": true,
      "stateMutability": "payable",
      "type": "function"
    },
    {
      "constant": false,
      "inputs": [
        {
          "name": "_name",
          "type": "string"
        },
        {
          "name": "_licenseFees",
          "type": "uint256[]"
        },
        {
          "name": "_licenseValidateTimes",
          "type": "uint256[]"
        }
      ],
      "name": "createApp",
      "outputs": [],
      "payable": true,
      "stateMutability": "payable",
      "type": "function"
    },
    {
      "constant": false,
      "inputs": [
        {
          "name": "_appId",
          "type": "uint256"
        },
        {
          "name": "_licenseIds",
          "type": "uint256[]"
        },
        {
          "name": "_licenseOfflines",
          "type": "bool[]"
        }
      ],
      "name": "setAppLicenseOnlineStates",
      "outputs": [],
      "payable": false,
      "stateMutability": "nonpayable",
      "type": "function"
    },
    {
      "constant": true,
      "inputs": [],
      "name": "getYourApps",
      "outputs": [
        {
          "name": "",
          "type": "uint256[]"
        }
      ],
      "payable": false,
      "stateMutability": "view",
      "type": "function"
    },
    {
      "constant": true,
      "inputs": [
        {
          "name": "_appId",
          "type": "uint256"
        }
      ],
      "name": "getAppBrief",
      "outputs": [
        {
          "name": "",
          "type": "string"
        },
        {
          "name": "",
          "type": "uint256"
        },
        {
          "name": "",
          "type": "uint256"
        }
      ],
      "payable": false,
      "stateMutability": "view",
      "type": "function"
    },
    {
      "constant": true,
      "inputs": [
        {
          "name": "_appId",
          "type": "uint256"
        }
      ],
      "name": "getAppLicenseList",
      "outputs": [
        {
          "name": "",
          "type": "uint256[]"
        },
        {
          "name": "",
          "type": "uint256[]"
        },
        {
          "name": "",
          "type": "bool[]"
        }
      ],
      "payable": false,
      "stateMutability": "view",
      "type": "function"
    },
    {
      "constant": true,
      "inputs": [
        {
          "name": "_appId",
          "type": "uint256"
        }
      ],
      "name": "getAppCustomerList",
      "outputs": [
        {
          "name": "",
          "type": "address[]"
        },
        {
          "name": "",
          "type": "uint256[]"
        },
        {
          "name": "",
          "type": "uint256[]"
        }
      ],
      "payable": false,
      "stateMutability": "view",
      "type": "function"
    },
    {
      "constant": true,
      "inputs": [],
      "name": "getAllApps",
      "outputs": [
        {
          "name": "",
          "type": "uint256[]"
        }
      ],
      "payable": false,
      "stateMutability": "view",
      "type": "function"
    },
    {
      "constant": false,
      "inputs": [
        {
          "name": "_newFee",
          "type": "uint256"
        }
      ],
      "name": "setAppFee",
      "outputs": [
        {
          "name": "",
          "type": "uint256"
        }
      ],
      "payable": false,
      "stateMutability": "nonpayable",
      "type": "function"
    },
    {
      "constant": false,
      "inputs": [],
      "name": "withDraw",
      "outputs": [],
      "payable": false,
      "stateMutability": "nonpayable",
      "type": "function"
    }
  ],
  "bytecode": "0x60806040526000600160146101000a81548160ff02191690831515021790555034801561002b57600080fd5b506128e08061003b6000396000f300608060405260043610610112576000357c0100000000000000000000000000000000000000000000000000000000900463ffffffff1680630fdb1c1014610117578063200b00a41461012e5780633f4ba83a1461018b578063598528c2146101a25780635c975abb146102b457806370160fc5146102e35780637ea5482a1461030e5780638456cb591461034f5780638da5cb5b146103665780639d22b688146103bd578063a2a8c2d01461041b578063b4394aa61461052d578063b786808614610599578063c0bac1a814610606578063c4d66de8146106cd578063cb7986f914610710578063cd6dc6871461077c578063cea40aa8146107c9578063e4a843791461087d578063f2fde38b146108ab575b600080fd5b34801561012357600080fd5b5061012c6108ee565b005b34801561013a57600080fd5b50610189600480360381019080803590602001909291908035906020019082018035906020019190919293919293908035906020019082018035906020019190919293919293905050506109aa565b005b34801561019757600080fd5b506101a0610c2e565b005b3480156101ae57600080fd5b506101cd60048036038101908080359060200190929190505050610cee565b60405180806020018060200180602001848103845287818151815260200191508051906020019060200280838360005b838110156102185780820151818401526020810190506101fd565b50505050905001848103835286818151815260200191508051906020019060200280838360005b8381101561025a57808201518184015260208101905061023f565b50505050905001848103825285818151815260200191508051906020019060200280838360005b8381101561029c578082015181840152602081019050610281565b50505050905001965050505050505060405180910390f35b3480156102c057600080fd5b506102c9610e86565b604051808215151515815260200191505060405180910390f35b3480156102ef57600080fd5b506102f8610e99565b6040518082815260200191505060405180910390f35b34801561031a57600080fd5b5061033960048036038101908080359060200190929190505050610e9f565b6040518082815260200191505060405180910390f35b34801561035b57600080fd5b50610364610fa3565b005b34801561037257600080fd5b5061037b611063565b604051808273ffffffffffffffffffffffffffffffffffffffff1673ffffffffffffffffffffffffffffffffffffffff16815260200191505060405180910390f35b610419600480360381019080803590602001908201803590602001919091929391929390803590602001908201803590602001919091929391929390803590602001908201803590602001919091929391929390505050611089565b005b34801561042757600080fd5b5061044660048036038101908080359060200190929190505050611251565b60405180806020018060200180602001848103845287818151815260200191508051906020019060200280838360005b83811015610491578082015181840152602081019050610476565b50505050905001848103835286818151815260200191508051906020019060200280838360005b838110156104d35780820151818401526020810190506104b8565b50505050905001848103825285818151815260200191508051906020019060200280838360005b838110156105155780820151818401526020810190506104fa565b50505050905001965050505050505060405180910390f35b34801561053957600080fd5b50610542611493565b6040518080602001828103825283818151815260200191508051906020019060200280838360005b8381101561058557808201518184015260208101905061056a565b505050509050019250505060405180910390f35b3480156105a557600080fd5b506105c46004803603810190808035906020019092919050505061157d565b604051808273ffffffffffffffffffffffffffffffffffffffff1673ffffffffffffffffffffffffffffffffffffffff16815260200191505060405180910390f35b34801561061257600080fd5b506106b3600480360381019080803590602001908201803590602001908080601f0160208091040260200160405190810160405280939291908181526020018383808284378201915050505050509192919290803590602001908201803590602001908080601f01602080910402602001604051908101604052809392919081815260200183838082843782019150505050505091929192905050506115b0565b604051808215151515815260200191505060405180910390f35b3480156106d957600080fd5b5061070e600480360381019080803573ffffffffffffffffffffffffffffffffffffffff16906020019092919050505061169b565b005b34801561071c57600080fd5b50610725611921565b6040518080602001828103825283818151815260200191508051906020019060200280838360005b8381101561076857808201518184015260208101905061074d565b505050509050019250505060405180910390f35b34801561078857600080fd5b506107c7600480360381019080803573ffffffffffffffffffffffffffffffffffffffff16906020019092919080359060200190929190505050611a6d565b005b3480156107d557600080fd5b506107f460048036038101908080359060200190929190505050611cfb565b6040518080602001848152602001838152602001828103825285818151815260200191508051906020019080838360005b83811015610840578082015181840152602081019050610825565b50505050905090810190601f16801561086d5780820380516001836020036101000a031916815260200191505b5094505050505060405180910390f35b6108a9600480360381019080803590602001908201803590602001919091929391929390505050611dd9565b005b3480156108b757600080fd5b506108ec600480360381019080803573ffffffffffffffffffffffffffffffffffffffff169060200190929190505050611fd7565b005b600160009054906101000a900473ffffffffffffffffffffffffffffffffffffffff1673ffffffffffffffffffffffffffffffffffffffff163373ffffffffffffffffffffffffffffffffffffffff1614151561094a57600080fd5b3373ffffffffffffffffffffffffffffffffffffffff166108fc3073ffffffffffffffffffffffffffffffffffffffff16319081150290604051600060405180830381858888f193505050501580156109a7573d6000803e3d6000fd5b50565b600080600080883373ffffffffffffffffffffffffffffffffffffffff166004600083815260200190815260200160002060009054906101000a900473ffffffffffffffffffffffffffffffffffffffff1673ffffffffffffffffffffffffffffffffffffffff16141515610a1e57600080fd5b600160149054906101000a900460ff16151515610a3a57600080fd5b60008a10158015610a4f57506003805490508a105b1515610a5a57600080fd5b8686905089899050141515610a6e57600080fd5b60038a815481101515610a7d57fe5b90600052602060002090600502019450600093505b88889050841015610b6c578888858181101515610aab57fe5b90506020020135925060008310158015610ac85750846001015483105b1515610ad357600080fd5b84600401600084815260200190815260200160002091508686858181101515610af857fe5b90506020020135151515158260020160009054906101000a900460ff161515141515610b51578686858181101515610b2c57fe5b9050602002013515158260020160006101000a81548160ff0219169083151502179055505b610b6560018561212f90919063ffffffff16565b9350610a92565b897f9915228889c3fc580aaf9ef33f0526ed631d30e98de792b8be111266ac1c257142338c8c8c8c604051808781526020018673ffffffffffffffffffffffffffffffffffffffff1673ffffffffffffffffffffffffffffffffffffffff168152602001806020018060200183810383528787828181526020019250602002808284378201915050838103825285858281815260200192506020028082843782019150509850505050505050505060405180910390a250505050505050505050565b600160009054906101000a900473ffffffffffffffffffffffffffffffffffffffff1673ffffffffffffffffffffffffffffffffffffffff163373ffffffffffffffffffffffffffffffffffffffff16141515610c8a57600080fd5b600160149054906101000a900460ff161515610ca557600080fd5b6000600160146101000a81548160ff0219169083151502179055507f7805862f689e2f13df9f062ff482ad3ad112aca9e0847911ed832e158c525b3360405160405180910390a1565b6060806060600080606080606060008060038b815481101515610d0d57fe5b906000526020600020906005020196508660010154955085604051908082528060200260200182016040528015610d535781602001602082028038833980820191505090505b50945085604051908082528060200260200182016040528015610d855781602001602082028038833980820191505090505b50935085604051908082528060200260200182016040528015610db75781602001602082028038833980820191505090505b509250600091505b85821015610e6f57866004016000838152602001908152602001600020905080600001548583815181101515610df157fe5b906020019060200201818152505080600101548483815181101515610e1257fe5b90602001906020020181815250508060020160009054906101000a900460ff168383815181101515610e4057fe5b9060200190602002019015159081151581525050610e6860018361212f90919063ffffffff16565b9150610dbf565b848484995099509950505050505050509193909250565b600160149054906101000a900460ff1681565b60025481565b600080600160009054906101000a900473ffffffffffffffffffffffffffffffffffffffff1673ffffffffffffffffffffffffffffffffffffffff163373ffffffffffffffffffffffffffffffffffffffff16141515610efe57600080fd5b6002548314151515610f0f57600080fd5b6002549050826002819055507f88baf3d55c73de3daf241b46e77dc4fbdeb5e9949c4ddff3761406b954134de0423383600254604051808581526020018473ffffffffffffffffffffffffffffffffffffffff1673ffffffffffffffffffffffffffffffffffffffff16815260200183815260200182815260200194505050505060405180910390a1600254915050919050565b600160009054906101000a900473ffffffffffffffffffffffffffffffffffffffff1673ffffffffffffffffffffffffffffffffffffffff163373ffffffffffffffffffffffffffffffffffffffff16141515610fff57600080fd5b600160149054906101000a900460ff1615151561101b57600080fd5b60018060146101000a81548160ff0219169083151502179055507f6985a02210a168e66602d3235cb6db0e70f92b3ba4d376a33c0f3d9434bff62560405160405180910390a1565b600160009054906101000a900473ffffffffffffffffffffffffffffffffffffffff1681565b600160149054906101000a900460ff161515156110a557600080fd5b60025434101515156110b657600080fd5b81819050848490501415156110ca57600080fd5b600160009054906101000a900473ffffffffffffffffffffffffffffffffffffffff1673ffffffffffffffffffffffffffffffffffffffff166108fc6002549081150290604051600060405180830381858888f19350505050158015611134573d6000803e3d6000fd5b50600061114c6002543461214b90919063ffffffff16565b11156111ae573373ffffffffffffffffffffffffffffffffffffffff166108fc6111816002543461214b90919063ffffffff16565b9081150290604051600060405180830381858888f193505050501580156111ac573d6000803e3d6000fd5b505b61124986868080601f016020809104026020016040519081016040528093929190818152602001838380828437820191505050505050858580806020026020016040519081016040528093929190818152602001838360200280828437820191505050505050848480806020026020016040519081016040528093929190818152602001838360200280828437820191505050505050612164565b505050505050565b606080606060008060608060606000808a3373ffffffffffffffffffffffffffffffffffffffff166004600083815260200190815260200160002060009054906101000a900473ffffffffffffffffffffffffffffffffffffffff1673ffffffffffffffffffffffffffffffffffffffff161415156112cf57600080fd5b60038c8154811015156112de57fe5b9060005260206000209060050201975087600201549650866040519080825280602002602001820160405280156113245781602001602082028038833980820191505090505b509550866040519080825280602002602001820160405280156113565781602001602082028038833980820191505090505b509450866040519080825280602002602001820160405280156113885781602001602082028038833980820191505090505b509350600092505b8683101561147b5787600301600084815260200190815260200160002091508160000160009054906101000a900473ffffffffffffffffffffffffffffffffffffffff1686848151811015156113e257fe5b9060200190602002019073ffffffffffffffffffffffffffffffffffffffff16908173ffffffffffffffffffffffffffffffffffffffff16815250508160010154858481518110151561143157fe5b90602001906020020181815250508160020154848481518110151561145257fe5b906020019060200201818152505061147460018461212f90919063ffffffff16565b9250611390565b8585859a509a509a5050505050505050509193909250565b6060806000600160009054906101000a900473ffffffffffffffffffffffffffffffffffffffff1673ffffffffffffffffffffffffffffffffffffffff163373ffffffffffffffffffffffffffffffffffffffff161415156114f457600080fd5b6003805490506040519080825280602002602001820160405280156115285781602001602082028038833980820191505090505b509150600090505b6003805490508110156115755780828281518110151561154c57fe5b906020019060200201818152505061156e60018261212f90919063ffffffff16565b9050611530565b819250505090565b60046020528060005260406000206000915054906101000a900473ffffffffffffffffffffffffffffffffffffffff1681565b600080836040518082805190602001908083835b6020831015156115e957805182526020820191506020810190506020830392506115c4565b6001836020036101000a0380198251168184511680821785525050505050509050019150509081526020016040518091039020826040518082805190602001908083835b602083101515611652578051825260208201915060208101905060208303925061162d565b6001836020036101000a038019825116818451168082178552505050505050905001915050908152602001604051809103902060009054906101000a900460ff16905092915050565b6040805190810160405280600881526020017f5061757361626c650000000000000000000000000000000000000000000000008152506040805190810160405280600581526020017f312e392e3000000000000000000000000000000000000000000000000000000081525061171182826115b0565b15151561171d57600080fd5b61172683612551565b7fdd117a11c22118c9dee4b5a67ce578bc44529dce21ee0ccc439588fbb9fb4ea38282604051808060200180602001838103835285818151815260200191508051906020019080838360005b8381101561178d578082015181840152602081019050611772565b50505050905090810190601f1680156117ba5780820380516001836020036101000a031916815260200191505b50838103825284818151815260200191508051906020019080838360005b838110156117f35780820151818401526020810190506117d8565b50505050905090810190601f1680156118205780820380516001836020036101000a031916815260200191505b5094505050505060405180910390a160016000836040518082805190602001908083835b6020831015156118695780518252602082019150602081019050602083039250611844565b6001836020036101000a0380198251168184511680821785525050505050509050019150509081526020016040518091039020826040518082805190602001908083835b6020831015156118d257805182526020820191506020810190506020830392506118ad565b6001836020036101000a038019825116818451168082178552505050505050905001915050908152602001604051809103902060006101000a81548160ff021916908315150217905550505050565b606080600080600560003373ffffffffffffffffffffffffffffffffffffffff1673ffffffffffffffffffffffffffffffffffffffff168152602001908152602001600020546040519080825280602002602001820160405280156119955781602001602082028038833980820191505090505b50925060009150600090505b600380549050811015611a64573373ffffffffffffffffffffffffffffffffffffffff166004600083815260200190815260200160002060009054906101000a900473ffffffffffffffffffffffffffffffffffffffff1673ffffffffffffffffffffffffffffffffffffffff161415611a4957808383815181101515611a2457fe5b9060200190602002018181525050611a4660018361212f90919063ffffffff16565b91505b611a5d60018261212f90919063ffffffff16565b90506119a1565b82935050505090565b6040805190810160405280600a81526020017f417070466163746f7279000000000000000000000000000000000000000000008152506040805190810160405280600181526020017f3000000000000000000000000000000000000000000000000000000000000000815250611ae382826115b0565b151515611aef57600080fd5b611af88461169b565b826002819055507fdd117a11c22118c9dee4b5a67ce578bc44529dce21ee0ccc439588fbb9fb4ea38282604051808060200180602001838103835285818151815260200191508051906020019080838360005b83811015611b66578082015181840152602081019050611b4b565b50505050905090810190601f168015611b935780820380516001836020036101000a031916815260200191505b50838103825284818151815260200191508051906020019080838360005b83811015611bcc578082015181840152602081019050611bb1565b50505050905090810190601f168015611bf95780820380516001836020036101000a031916815260200191505b5094505050505060405180910390a160016000836040518082805190602001908083835b602083101515611c425780518252602082019150602081019050602083039250611c1d565b6001836020036101000a0380198251168184511680821785525050505050509050019150509081526020016040518091039020826040518082805190602001908083835b602083101515611cab5780518252602082019150602081019050602083039250611c86565b6001836020036101000a038019825116818451168082178552505050505050905001915050908152602001604051809103902060006101000a81548160ff02191690831515021790555050505050565b60606000806000600385815481101515611d1157fe5b906000526020600020906005020190508060000181600101548260020154828054600181600116156101000203166002900480601f016020809104026020016040519081016040528092919081815260200182805460018160011615610100020316600290048015611dc45780601f10611d9957610100808354040283529160200191611dc4565b820191906000526020600020905b815481529060010190602001808311611da757829003601f168201915b50505050509250935093509350509193909250565b606080600160149054906101000a900460ff16151515611df857600080fd5b6002543410151515611e0957600080fd5b600160009054906101000a900473ffffffffffffffffffffffffffffffffffffffff1673ffffffffffffffffffffffffffffffffffffffff166108fc6002549081150290604051600060405180830381858888f19350505050158015611e73573d6000803e3d6000fd5b506000611e8b6002543461214b90919063ffffffff16565b1115611eed573373ffffffffffffffffffffffffffffffffffffffff166108fc611ec06002543461214b90919063ffffffff16565b9081150290604051600060405180830381858888f19350505050158015611eeb573d6000803e3d6000fd5b505b6001604051908082528060200260200182016040528015611f1d5781602001602082028038833980820191505090505b5091506000826000815181101515611f3157fe5b90602001906020020181815250506001604051908082528060200260200182016040528015611f6f5781602001602082028038833980820191505090505b50905063bbf81e00816000815181101515611f8657fe5b9060200190602002018181525050611fd184848080601f0160208091040260200160405190810160405280939291908181526020018383808284378201915050505050508383612164565b50505050565b600160009054906101000a900473ffffffffffffffffffffffffffffffffffffffff1673ffffffffffffffffffffffffffffffffffffffff163373ffffffffffffffffffffffffffffffffffffffff1614151561203357600080fd5b600073ffffffffffffffffffffffffffffffffffffffff168173ffffffffffffffffffffffffffffffffffffffff161415151561206f57600080fd5b8073ffffffffffffffffffffffffffffffffffffffff16600160009054906101000a900473ffffffffffffffffffffffffffffffffffffffff1673ffffffffffffffffffffffffffffffffffffffff167f8be0079c531659141344cd1fd0a4f28419497f9722a3daafe3b4186f6b6457e060405160405180910390a380600160006101000a81548173ffffffffffffffffffffffffffffffffffffffff021916908373ffffffffffffffffffffffffffffffffffffffff16021790555050565b6000818301905082811015151561214257fe5b80905092915050565b600082821115151561215957fe5b818303905092915050565b6000806121f8600160036060604051908101604052808981526020018851815260200160008152509080600181540180825580915050906001820390600052602060002090600502016000909192909190915060008201518160000190805190602001906121d392919061280f565b506020820151816001015560408201518160020155505061214b90919063ffffffff16565b9150336004600084815260200190815260200160002060006101000a81548173ffffffffffffffffffffffffffffffffffffffff021916908373ffffffffffffffffffffffffffffffffffffffff16021790555061229f6001600560003373ffffffffffffffffffffffffffffffffffffffff1673ffffffffffffffffffffffffffffffffffffffff1681526020019081526020016000205461212f90919063ffffffff16565b600560003373ffffffffffffffffffffffffffffffffffffffff1673ffffffffffffffffffffffffffffffffffffffff16815260200190815260200160002081905550600090505b6003828154811015156122f657fe5b9060005260206000209060050201600101548110156123df57606060405190810160405280858381518110151561232957fe5b906020019060200201518152602001848381518110151561234657fe5b9060200190602002015181526020016000151581525060038381548110151561236b57fe5b90600052602060002090600502016004016000838152602001908152602001600020600082015181600001556020820151816001015560408201518160020160006101000a81548160ff0219169083151502179055509050506123d860018261212f90919063ffffffff16565b90506122e7565b817f631da1651c04ffead99053a9d1c3424a67b2bc55b5c80c0ed80616316495623b4233888888604051808681526020018573ffffffffffffffffffffffffffffffffffffffff1673ffffffffffffffffffffffffffffffffffffffff168152602001806020018060200180602001848103845287818151815260200191508051906020019080838360005b8381101561248657808201518184015260208101905061246b565b50505050905090810190601f1680156124b35780820380516001836020036101000a031916815260200191505b50848103835286818151815260200191508051906020019060200280838360005b838110156124ef5780820151818401526020810190506124d4565b50505050905001848103825285818151815260200191508051906020019060200280838360005b83811015612531578082015181840152602081019050612516565b505050509050019850505050505050505060405180910390a25050505050565b6040805190810160405280600781526020017f4f776e61626c65000000000000000000000000000000000000000000000000008152506040805190810160405280600581526020017f312e392e300000000000000000000000000000000000000000000000000000008152506125c782826115b0565b1515156125d357600080fd5b82600160006101000a81548173ffffffffffffffffffffffffffffffffffffffff021916908373ffffffffffffffffffffffffffffffffffffffff1602179055507fdd117a11c22118c9dee4b5a67ce578bc44529dce21ee0ccc439588fbb9fb4ea38282604051808060200180602001838103835285818151815260200191508051906020019080838360005b8381101561267b578082015181840152602081019050612660565b50505050905090810190601f1680156126a85780820380516001836020036101000a031916815260200191505b50838103825284818151815260200191508051906020019080838360005b838110156126e15780820151818401526020810190506126c6565b50505050905090810190601f16801561270e5780820380516001836020036101000a031916815260200191505b5094505050505060405180910390a160016000836040518082805190602001908083835b6020831015156127575780518252602082019150602081019050602083039250612732565b6001836020036101000a0380198251168184511680821785525050505050509050019150509081526020016040518091039020826040518082805190602001908083835b6020831015156127c0578051825260208201915060208101905060208303925061279b565b6001836020036101000a038019825116818451168082178552505050505050905001915050908152602001604051809103902060006101000a81548160ff021916908315150217905550505050565b828054600181600116156101000203166002900490600052602060002090601f016020900481019282601f1061285057805160ff191683800117855561287e565b8280016001018555821561287e579182015b8281111561287d578251825591602001919060010190612862565b5b50905061288b919061288f565b5090565b6128b191905b808211156128ad576000816000905550600101612895565b5090565b905600a165627a7a7230582033de1bee55a1c7ae455829dbeb40f77b1a68777e7be5b6fdf90cbccbdd0410680029",
  "source": "pragma solidity ^0.4.21;\r\n\r\nimport \"openzeppelin-zos/contracts/math/SafeMath.sol\";\r\nimport \"openzeppelin-zos/contracts/lifecycle/Pausable.sol\";\r\n\r\ncontract AppFactory is Pausable {\r\n  using SafeMath for uint256;\r\n\r\n  event NewApp(uint256 _creationTime, address  _creator, uint256 indexed _appId, string _appName, uint256[] _licenseFees, uint256[]  _licenseValidateTimes);\r\n  event UpdateAppLicenses(uint256 _updateTime, address  _appOwner, uint256 indexed _appId, uint256[] _licenseIds, bool[] _licenseOfflines);\r\n\r\n  event UpdateGlobalAppCreationFee(uint256 _updateTime, address  _appOwner, uint256 _preFee, uint256 _newFee);\r\n\r\n\r\n  struct Customer{\r\n   address addr;\r\n   uint256 licenseId;\r\n   uint256 licenseStartTime;\r\n  }\r\n\r\n  struct LicenseType{\r\n   uint256 fee; // wei unit\r\n   uint256 validateTime; // seconds unit\r\n   bool offline;\r\n  }\r\n\r\n\r\n\r\n  struct App{\r\n   string name;\r\n   uint256 licenseTypeNum;\r\n   uint256 customersNum;\r\n   mapping(uint256 => Customer)  toCustomer;\r\n   mapping(uint256 => LicenseType)  toLicenseType;\r\n  }\r\n\r\n\r\n  uint256  public  appFee; // 0.01 eth default\r\n\r\n  App[] internal apps;\r\n\r\n  mapping (uint256 => address) public appToOwner;\r\n  mapping (address => uint256) ownerAppCount;\r\n\r\n  modifier isAppOwner(uint256 _appId){\r\n    require(appToOwner[_appId] == msg.sender );\r\n    _;\r\n  }\r\n  function initialize(address _sender, uint256 _appFee) isInitializer(\"AppFactory\", \"0\") public {\r\n    Pausable.initialize(_sender);\r\n    appFee = _appFee;\r\n  }\r\n  /* function AppFactory() public {\r\n    appFee = 0.01 ether;\r\n  } */\r\n  function _createApp(string _name, uint256[] _licenseFees, uint256[] _licenseValidateTimes) internal {\r\n   uint256 id = apps.push(App(_name,_licenseFees.length, 0)).sub(1);\r\n   appToOwner[id] = msg.sender;\r\n   ownerAppCount[msg.sender] = ownerAppCount[msg.sender].add(1);\r\n\r\n   for (uint256 i = 0; i < apps[id].licenseTypeNum; i=i.add(1)) {\r\n      apps[id].toLicenseType[i] = LicenseType(_licenseFees[i],_licenseValidateTimes[i],false);\r\n   }\r\n   emit NewApp(now,msg.sender, id, _name,_licenseFees, _licenseValidateTimes);\r\n  }\r\n\r\n  function createFreeApp(string _name) external payable whenNotPaused {\r\n   require(msg.value >= appFee);\r\n   owner.transfer(appFee);\r\n   if(msg.value.sub(appFee) > 0){\r\n     msg.sender.transfer(msg.value.sub(appFee));\r\n   }\r\n   uint256[] memory licenseFees = new uint256[](1);\r\n   licenseFees[0] = 0 ether;\r\n   uint256[] memory licenseValidateTimes = new uint256[](1);\r\n\r\n   licenseValidateTimes[0] = 365*100 days;\r\n\r\n   _createApp(_name, licenseFees, licenseValidateTimes);\r\n  }\r\n\r\n  function createApp(string _name,uint256[] _licenseFees, uint256[] _licenseValidateTimes ) external payable whenNotPaused {\r\n   require(msg.value >= appFee);\r\n   require(_licenseFees.length == _licenseValidateTimes.length );\r\n   owner.transfer(appFee);\r\n   if(msg.value.sub(appFee) > 0){\r\n     msg.sender.transfer(msg.value.sub(appFee));\r\n   }\r\n   _createApp(_name,_licenseFees,_licenseValidateTimes);\r\n  }\r\n\r\n  function setAppLicenseOnlineStates(uint256 _appId,uint256[] _licenseIds,bool[] _licenseOfflines) external isAppOwner(_appId) whenNotPaused{\r\n    require(_appId >= 0 && _appId < apps.length);\r\n    require(_licenseIds.length == _licenseOfflines.length );\r\n    App storage app = apps[_appId];\r\n    for (uint256 i = 0; i < _licenseIds.length; i=i.add(1)) {\r\n      uint _licenseId = _licenseIds[i];\r\n      require(_licenseId >= 0 && _licenseId < app.licenseTypeNum);\r\n      LicenseType storage licenseType = app.toLicenseType[_licenseId];\r\n      if(licenseType.offline!=_licenseOfflines[i]){\r\n        licenseType.offline = _licenseOfflines[i];\r\n      }\r\n\r\n    }\r\n    emit UpdateAppLicenses(now, msg.sender, _appId, _licenseIds, _licenseOfflines);\r\n  }\r\n\r\n  function getYourApps() external view returns(uint256[]) {\r\n   uint256[] memory ids = new uint256[](ownerAppCount[msg.sender]);\r\n   uint256 counter = 0;\r\n   for (uint256 i = 0; i < apps.length; i=i.add(1)) {\r\n     if (appToOwner[i] == msg.sender) {\r\n       ids[counter] = i;\r\n       counter=counter.add(1);\r\n     }\r\n   }\r\n   return (ids);\r\n  }\r\n\r\n  function getAppBrief(uint256 _appId) external view   returns(string , uint256 ,  uint256) {\r\n    App storage app = apps[_appId];\r\n    return (app.name, app.licenseTypeNum, app.customersNum);\r\n  }\r\n  function getAppLicenseList(uint256 _appId) external view   returns( uint256[] , uint256[], bool[]  ) {\r\n     App storage app = apps[_appId];\r\n     uint256  licenseTypeNum = app.licenseTypeNum;\r\n     uint256[] memory licenseFees = new uint256[](licenseTypeNum);\r\n     uint256[] memory licenseValidateTimes = new uint256[](licenseTypeNum);\r\n     bool[] memory licenseOfflines = new bool[](licenseTypeNum);\r\n     for (uint256 i = 0; i < licenseTypeNum; i=i.add(1)) {\r\n        LicenseType storage licenseType = app.toLicenseType[i];\r\n        licenseFees[i] = licenseType.fee;\r\n        licenseValidateTimes[i] = licenseType.validateTime;\r\n        licenseOfflines[i] = licenseType.offline;\r\n     }\r\n     return (licenseFees, licenseValidateTimes, licenseOfflines);\r\n  }\r\n  function getAppCustomerList(uint256 _appId) external view isAppOwner(_appId) returns( address[], uint256[] , uint256[]  ) {\r\n      App storage app = apps[_appId];\r\n      uint256  customersNum = app.customersNum;\r\n      address[] memory customerAddrs = new address[](customersNum);\r\n      uint256[] memory customerLicenseIds = new uint256[](customersNum);\r\n      uint256[] memory customerLicenseStartTimes = new uint256[](customersNum);\r\n\r\n      for (uint256 j = 0; j < customersNum; j=j.add(1)) {\r\n         Customer storage customer = app.toCustomer[j];\r\n         customerAddrs[j] = customer.addr;\r\n         customerLicenseIds[j] = customer.licenseId;\r\n         customerLicenseStartTimes[j] = customer.licenseStartTime;\r\n      }\r\n      return (customerAddrs, customerLicenseIds, customerLicenseStartTimes);\r\n  }\r\n  function getAllApps() external view  onlyOwner returns(uint256[]) {\r\n    uint256[] memory ids = new uint256[](apps.length);\r\n\r\n    for (uint256 i = 0; i < apps.length; i=i.add(1)) {\r\n        ids[i] = i;\r\n    }\r\n    return (ids);\r\n  }\r\n\r\n  function setAppFee(uint256 _newFee) public onlyOwner returns(uint256) {\r\n    require(_newFee != appFee);\r\n    uint256 preFee = appFee;\r\n    appFee = _newFee;\r\n    emit UpdateGlobalAppCreationFee(now, msg.sender, preFee,appFee);\r\n    return (appFee);\r\n  }\r\n\r\n\r\n  /* function () payable public {} */\r\n  /* function claim() external onlyOwner {\r\n      selfdestruct(msg.sender);\r\n  } */\r\n  function withDraw() external onlyOwner {\r\n    msg.sender.transfer(address(this).balance);\r\n  }\r\n\r\n}\r\n",
  "sourcePath": "D:\\work\\creative\\smartContract\\licenseContract\\contracts\\AppFactory.sol",
  "compiler": {
    "name": "solc",
    "version": "0.4.24+commit.e67f0147.Emscripten.clang"
  },
  "schemaVersion": "2.0.1",
  "updatedAt": "2018-09-28T07:56:37.413Z"
}