{
  "contractName": "AppFactory",
  "abi": [
    {
      "constant": false,
      "inputs": [],
      "name": "unpause",
      "outputs": [],
      "payable": false,
      "stateMutability": "nonpayable",
      "type": "function"
    },
    {
      "constant": true,
      "inputs": [],
      "name": "paused",
      "outputs": [
        {
          "name": "",
          "type": "bool"
        }
      ],
      "payable": false,
      "stateMutability": "view",
      "type": "function"
    },
    {
      "constant": true,
      "inputs": [],
      "name": "appFee",
      "outputs": [
        {
          "name": "",
          "type": "uint256"
        }
      ],
      "payable": false,
      "stateMutability": "view",
      "type": "function"
    },
    {
      "constant": false,
      "inputs": [],
      "name": "pause",
      "outputs": [],
      "payable": false,
      "stateMutability": "nonpayable",
      "type": "function"
    },
    {
      "constant": true,
      "inputs": [],
      "name": "owner",
      "outputs": [
        {
          "name": "",
          "type": "address"
        }
      ],
      "payable": false,
      "stateMutability": "view",
      "type": "function"
    },
    {
      "constant": true,
      "inputs": [
        {
          "name": "",
          "type": "uint256"
        }
      ],
      "name": "appToOwner",
      "outputs": [
        {
          "name": "",
          "type": "address"
        }
      ],
      "payable": false,
      "stateMutability": "view",
      "type": "function"
    },
    {
      "constant": true,
      "inputs": [
        {
          "name": "contractName",
          "type": "string"
        },
        {
          "name": "migrationId",
          "type": "string"
        }
      ],
      "name": "isMigrated",
      "outputs": [
        {
          "name": "",
          "type": "bool"
        }
      ],
      "payable": false,
      "stateMutability": "view",
      "type": "function"
    },
    {
      "constant": false,
      "inputs": [
        {
          "name": "_sender",
          "type": "address"
        }
      ],
      "name": "initialize",
      "outputs": [],
      "payable": false,
      "stateMutability": "nonpayable",
      "type": "function"
    },
    {
      "constant": false,
      "inputs": [
        {
          "name": "newOwner",
          "type": "address"
        }
      ],
      "name": "transferOwnership",
      "outputs": [],
      "payable": false,
      "stateMutability": "nonpayable",
      "type": "function"
    },
    {
      "payable": true,
      "stateMutability": "payable",
      "type": "fallback"
    },
    {
      "anonymous": false,
      "inputs": [
        {
          "indexed": false,
          "name": "_creationTime",
          "type": "uint256"
        },
        {
          "indexed": false,
          "name": "_creator",
          "type": "address"
        },
        {
          "indexed": false,
          "name": "_appId",
          "type": "uint256"
        },
        {
          "indexed": false,
          "name": "_appName",
          "type": "string"
        },
        {
          "indexed": false,
          "name": "_licenseFees",
          "type": "uint256[]"
        },
        {
          "indexed": false,
          "name": "_licenseValidateTimes",
          "type": "uint256[]"
        }
      ],
      "name": "NewApp",
      "type": "event"
    },
    {
      "anonymous": false,
      "inputs": [],
      "name": "Pause",
      "type": "event"
    },
    {
      "anonymous": false,
      "inputs": [],
      "name": "Unpause",
      "type": "event"
    },
    {
      "anonymous": false,
      "inputs": [
        {
          "indexed": true,
          "name": "previousOwner",
          "type": "address"
        },
        {
          "indexed": true,
          "name": "newOwner",
          "type": "address"
        }
      ],
      "name": "OwnershipTransferred",
      "type": "event"
    },
    {
      "anonymous": false,
      "inputs": [
        {
          "indexed": false,
          "name": "contractName",
          "type": "string"
        },
        {
          "indexed": false,
          "name": "migrationId",
          "type": "string"
        }
      ],
      "name": "Migrated",
      "type": "event"
    },
    {
      "constant": false,
      "inputs": [
        {
          "name": "_name",
          "type": "string"
        }
      ],
      "name": "createFreeApp",
      "outputs": [],
      "payable": true,
      "stateMutability": "payable",
      "type": "function"
    },
    {
      "constant": false,
      "inputs": [
        {
          "name": "_name",
          "type": "string"
        },
        {
          "name": "_licenseFees",
          "type": "uint256[]"
        },
        {
          "name": "_licenseValidateTimes",
          "type": "uint256[]"
        }
      ],
      "name": "createApp",
      "outputs": [],
      "payable": true,
      "stateMutability": "payable",
      "type": "function"
    },
    {
      "constant": true,
      "inputs": [],
      "name": "getYourApps",
      "outputs": [
        {
          "name": "",
          "type": "uint256[]"
        }
      ],
      "payable": false,
      "stateMutability": "view",
      "type": "function"
    },
    {
      "constant": true,
      "inputs": [
        {
          "name": "_appId",
          "type": "uint256"
        }
      ],
      "name": "getAppBrief",
      "outputs": [
        {
          "name": "",
          "type": "string"
        },
        {
          "name": "",
          "type": "uint256"
        },
        {
          "name": "",
          "type": "uint256"
        }
      ],
      "payable": false,
      "stateMutability": "view",
      "type": "function"
    },
    {
      "constant": true,
      "inputs": [
        {
          "name": "_appId",
          "type": "uint256"
        }
      ],
      "name": "getAppLicenseList",
      "outputs": [
        {
          "name": "",
          "type": "uint256[]"
        },
        {
          "name": "",
          "type": "uint256[]"
        }
      ],
      "payable": false,
      "stateMutability": "view",
      "type": "function"
    },
    {
      "constant": true,
      "inputs": [
        {
          "name": "_appId",
          "type": "uint256"
        }
      ],
      "name": "getAppCustomerList",
      "outputs": [
        {
          "name": "",
          "type": "address[]"
        },
        {
          "name": "",
          "type": "uint256[]"
        },
        {
          "name": "",
          "type": "uint256[]"
        }
      ],
      "payable": false,
      "stateMutability": "view",
      "type": "function"
    },
    {
      "constant": true,
      "inputs": [],
      "name": "getAllApps",
      "outputs": [
        {
          "name": "",
          "type": "uint256[]"
        }
      ],
      "payable": false,
      "stateMutability": "view",
      "type": "function"
    },
    {
      "constant": false,
      "inputs": [],
      "name": "claim",
      "outputs": [],
      "payable": false,
      "stateMutability": "nonpayable",
      "type": "function"
    }
  ],
  "bytecode": "0x60806040526000600160146101000a81548160ff02191690831515021790555034801561002b57600080fd5b506121a48061003b6000396000f3006080604052600436106100f1576000357c0100000000000000000000000000000000000000000000000000000000900463ffffffff1680633f4ba83a146100f35780634e71d92d1461010a578063598528c2146101215780635c975abb146101eb57806370160fc51461021a5780638456cb59146102455780638da5cb5b1461025c5780639d22b688146102b3578063a2a8c2d014610311578063b4394aa614610423578063b78680861461048f578063c0bac1a8146104fc578063c4d66de8146105c3578063cb7986f914610606578063cea40aa814610672578063e4a8437914610726578063f2fde38b14610754575b005b3480156100ff57600080fd5b50610108610797565b005b34801561011657600080fd5b5061011f610857565b005b34801561012d57600080fd5b5061014c600480360381019080803590602001909291905050506108cc565b604051808060200180602001838103835285818151815260200191508051906020019060200280838360005b83811015610193578082015181840152602081019050610178565b50505050905001838103825284818151815260200191508051906020019060200280838360005b838110156101d55780820151818401526020810190506101ba565b5050505090500194505050505060405180910390f35b3480156101f757600080fd5b50610200610a63565b604051808215151515815260200191505060405180910390f35b34801561022657600080fd5b5061022f610a76565b6040518082815260200191505060405180910390f35b34801561025157600080fd5b5061025a610a81565b005b34801561026857600080fd5b50610271610b41565b604051808273ffffffffffffffffffffffffffffffffffffffff1673ffffffffffffffffffffffffffffffffffffffff16815260200191505060405180910390f35b61030f600480360381019080803590602001908201803590602001919091929391929390803590602001908201803590602001919091929391929390803590602001908201803590602001919091929391929390505050610b67565b005b34801561031d57600080fd5b5061033c60048036038101908080359060200190929190505050610d43565b60405180806020018060200180602001848103845287818151815260200191508051906020019060200280838360005b8381101561038757808201518184015260208101905061036c565b50505050905001848103835286818151815260200191508051906020019060200280838360005b838110156103c95780820151818401526020810190506103ae565b50505050905001848103825285818151815260200191508051906020019060200280838360005b8381101561040b5780820151818401526020810190506103f0565b50505050905001965050505050505060405180910390f35b34801561042f57600080fd5b50610438610f85565b6040518080602001828103825283818151815260200191508051906020019060200280838360005b8381101561047b578082015181840152602081019050610460565b505050509050019250505060405180910390f35b34801561049b57600080fd5b506104ba6004803603810190808035906020019092919050505061106f565b604051808273ffffffffffffffffffffffffffffffffffffffff1673ffffffffffffffffffffffffffffffffffffffff16815260200191505060405180910390f35b34801561050857600080fd5b506105a9600480360381019080803590602001908201803590602001908080601f0160208091040260200160405190810160405280939291908181526020018383808284378201915050505050509192919290803590602001908201803590602001908080601f01602080910402602001604051908101604052809392919081815260200183838082843782019150505050505091929192905050506110a2565b604051808215151515815260200191505060405180910390f35b3480156105cf57600080fd5b50610604600480360381019080803573ffffffffffffffffffffffffffffffffffffffff16906020019092919050505061118d565b005b34801561061257600080fd5b5061061b611413565b6040518080602001828103825283818151815260200191508051906020019060200280838360005b8381101561065e578082015181840152602081019050610643565b505050509050019250505060405180910390f35b34801561067e57600080fd5b5061069d6004803603810190808035906020019092919050505061155f565b6040518080602001848152602001838152602001828103825285818151815260200191508051906020019080838360005b838110156106e95780820151818401526020810190506106ce565b50505050905090810190601f1680156107165780820380516001836020036101000a031916815260200191505b5094505050505060405180910390f35b6107526004803603810190808035906020019082018035906020019190919293919293905050506116ac565b005b34801561076057600080fd5b50610795600480360381019080803573ffffffffffffffffffffffffffffffffffffffff1690602001909291905050506118be565b005b600160009054906101000a900473ffffffffffffffffffffffffffffffffffffffff1673ffffffffffffffffffffffffffffffffffffffff163373ffffffffffffffffffffffffffffffffffffffff161415156107f357600080fd5b600160149054906101000a900460ff16151561080e57600080fd5b6000600160146101000a81548160ff0219169083151502179055507f7805862f689e2f13df9f062ff482ad3ad112aca9e0847911ed832e158c525b3360405160405180910390a1565b600160009054906101000a900473ffffffffffffffffffffffffffffffffffffffff1673ffffffffffffffffffffffffffffffffffffffff163373ffffffffffffffffffffffffffffffffffffffff161415156108b357600080fd5b3373ffffffffffffffffffffffffffffffffffffffff16ff5b606080600080606080600080883373ffffffffffffffffffffffffffffffffffffffff166003600083815260200190815260200160002060009054906101000a900473ffffffffffffffffffffffffffffffffffffffff1673ffffffffffffffffffffffffffffffffffffffff1614151561094657600080fd5b60028a81548110151561095557fe5b90600052602060002090600502019650866001015495508560405190808252806020026020018201604052801561099b5781602001602082028038833980820191505090505b509450856040519080825280602002602001820160405280156109cd5781602001602082028038833980820191505090505b509350600092505b85831015610a5157866004016000848152602001908152602001600020915081600001548584815181101515610a0757fe5b906020019060200201818152505081600101548484815181101515610a2857fe5b9060200190602002018181525050610a4a600184611a1690919063ffffffff16565b92506109d5565b84849850985050505050505050915091565b600160149054906101000a900460ff1681565b662386f26fc1000081565b600160009054906101000a900473ffffffffffffffffffffffffffffffffffffffff1673ffffffffffffffffffffffffffffffffffffffff163373ffffffffffffffffffffffffffffffffffffffff16141515610add57600080fd5b600160149054906101000a900460ff16151515610af957600080fd5b60018060146101000a81548160ff0219169083151502179055507f6985a02210a168e66602d3235cb6db0e70f92b3ba4d376a33c0f3d9434bff62560405160405180910390a1565b600160009054906101000a900473ffffffffffffffffffffffffffffffffffffffff1681565b600160149054906101000a900460ff16151515610b8357600080fd5b662386f26fc100003410151515610b9957600080fd5b8181905084849050141515610bad57600080fd5b600160009054906101000a900473ffffffffffffffffffffffffffffffffffffffff1673ffffffffffffffffffffffffffffffffffffffff166108fc662386f26fc100009081150290604051600060405180830381858888f19350505050158015610c1c573d6000803e3d6000fd5b506000610c39662386f26fc1000034611a3290919063ffffffff16565b1115610ca0573373ffffffffffffffffffffffffffffffffffffffff166108fc610c73662386f26fc1000034611a3290919063ffffffff16565b9081150290604051600060405180830381858888f19350505050158015610c9e573d6000803e3d6000fd5b505b610d3b86868080601f016020809104026020016040519081016040528093929190818152602001838380828437820191505050505050858580806020026020016040519081016040528093929190818152602001838360200280828437820191505050505050848480806020026020016040519081016040528093929190818152602001838360200280828437820191505050505050611a4b565b505050505050565b606080606060008060608060606000808a3373ffffffffffffffffffffffffffffffffffffffff166003600083815260200190815260200160002060009054906101000a900473ffffffffffffffffffffffffffffffffffffffff1673ffffffffffffffffffffffffffffffffffffffff16141515610dc157600080fd5b60028c815481101515610dd057fe5b906000526020600020906005020197508760020154965086604051908082528060200260200182016040528015610e165781602001602082028038833980820191505090505b50955086604051908082528060200260200182016040528015610e485781602001602082028038833980820191505090505b50945086604051908082528060200260200182016040528015610e7a5781602001602082028038833980820191505090505b509350600092505b86831015610f6d5787600301600084815260200190815260200160002091508160000160009054906101000a900473ffffffffffffffffffffffffffffffffffffffff168684815181101515610ed457fe5b9060200190602002019073ffffffffffffffffffffffffffffffffffffffff16908173ffffffffffffffffffffffffffffffffffffffff168152505081600101548584815181101515610f2357fe5b906020019060200201818152505081600201548484815181101515610f4457fe5b9060200190602002018181525050610f66600184611a1690919063ffffffff16565b9250610e82565b8585859a509a509a5050505050505050509193909250565b6060806000600160009054906101000a900473ffffffffffffffffffffffffffffffffffffffff1673ffffffffffffffffffffffffffffffffffffffff163373ffffffffffffffffffffffffffffffffffffffff16141515610fe657600080fd5b60028054905060405190808252806020026020018201604052801561101a5781602001602082028038833980820191505090505b509150600090505b6002805490508110156110675780828281518110151561103e57fe5b9060200190602002018181525050611060600182611a1690919063ffffffff16565b9050611022565b819250505090565b60036020528060005260406000206000915054906101000a900473ffffffffffffffffffffffffffffffffffffffff1681565b600080836040518082805190602001908083835b6020831015156110db57805182526020820191506020810190506020830392506110b6565b6001836020036101000a0380198251168184511680821785525050505050509050019150509081526020016040518091039020826040518082805190602001908083835b602083101515611144578051825260208201915060208101905060208303925061111f565b6001836020036101000a038019825116818451168082178552505050505050905001915050908152602001604051809103902060009054906101000a900460ff16905092915050565b6040805190810160405280600881526020017f5061757361626c650000000000000000000000000000000000000000000000008152506040805190810160405280600581526020017f312e392e3000000000000000000000000000000000000000000000000000000081525061120382826110a2565b15151561120f57600080fd5b61121883611e15565b7fdd117a11c22118c9dee4b5a67ce578bc44529dce21ee0ccc439588fbb9fb4ea38282604051808060200180602001838103835285818151815260200191508051906020019080838360005b8381101561127f578082015181840152602081019050611264565b50505050905090810190601f1680156112ac5780820380516001836020036101000a031916815260200191505b50838103825284818151815260200191508051906020019080838360005b838110156112e55780820151818401526020810190506112ca565b50505050905090810190601f1680156113125780820380516001836020036101000a031916815260200191505b5094505050505060405180910390a160016000836040518082805190602001908083835b60208310151561135b5780518252602082019150602081019050602083039250611336565b6001836020036101000a0380198251168184511680821785525050505050509050019150509081526020016040518091039020826040518082805190602001908083835b6020831015156113c4578051825260208201915060208101905060208303925061139f565b6001836020036101000a038019825116818451168082178552505050505050905001915050908152602001604051809103902060006101000a81548160ff021916908315150217905550505050565b606080600080600460003373ffffffffffffffffffffffffffffffffffffffff1673ffffffffffffffffffffffffffffffffffffffff168152602001908152602001600020546040519080825280602002602001820160405280156114875781602001602082028038833980820191505090505b50925060009150600090505b600280549050811015611556573373ffffffffffffffffffffffffffffffffffffffff166003600083815260200190815260200160002060009054906101000a900473ffffffffffffffffffffffffffffffffffffffff1673ffffffffffffffffffffffffffffffffffffffff16141561153b5780838381518110151561151657fe5b9060200190602002018181525050611538600183611a1690919063ffffffff16565b91505b61154f600182611a1690919063ffffffff16565b9050611493565b82935050505090565b60606000806000843373ffffffffffffffffffffffffffffffffffffffff166003600083815260200190815260200160002060009054906101000a900473ffffffffffffffffffffffffffffffffffffffff1673ffffffffffffffffffffffffffffffffffffffff161415156115d457600080fd5b6002868154811015156115e357fe5b906000526020600020906005020191508160000182600101548360020154828054600181600116156101000203166002900480601f0160208091040260200160405190810160405280929190818152602001828054600181600116156101000203166002900480156116965780601f1061166b57610100808354040283529160200191611696565b820191906000526020600020905b81548152906001019060200180831161167957829003601f168201915b5050505050925094509450945050509193909250565b606080600160149054906101000a900460ff161515156116cb57600080fd5b662386f26fc1000034101515156116e157600080fd5b600160009054906101000a900473ffffffffffffffffffffffffffffffffffffffff1673ffffffffffffffffffffffffffffffffffffffff166108fc662386f26fc100009081150290604051600060405180830381858888f19350505050158015611750573d6000803e3d6000fd5b50600061176d662386f26fc1000034611a3290919063ffffffff16565b11156117d4573373ffffffffffffffffffffffffffffffffffffffff166108fc6117a7662386f26fc1000034611a3290919063ffffffff16565b9081150290604051600060405180830381858888f193505050501580156117d2573d6000803e3d6000fd5b505b60016040519080825280602002602001820160405280156118045781602001602082028038833980820191505090505b509150600082600081518110151561181857fe5b906020019060200201818152505060016040519080825280602002602001820160405280156118565781602001602082028038833980820191505090505b50905063bbf81e0081600081518110151561186d57fe5b90602001906020020181815250506118b884848080601f0160208091040260200160405190810160405280939291908181526020018383808284378201915050505050508383611a4b565b50505050565b600160009054906101000a900473ffffffffffffffffffffffffffffffffffffffff1673ffffffffffffffffffffffffffffffffffffffff163373ffffffffffffffffffffffffffffffffffffffff1614151561191a57600080fd5b600073ffffffffffffffffffffffffffffffffffffffff168173ffffffffffffffffffffffffffffffffffffffff161415151561195657600080fd5b8073ffffffffffffffffffffffffffffffffffffffff16600160009054906101000a900473ffffffffffffffffffffffffffffffffffffffff1673ffffffffffffffffffffffffffffffffffffffff167f8be0079c531659141344cd1fd0a4f28419497f9722a3daafe3b4186f6b6457e060405160405180910390a380600160006101000a81548173ffffffffffffffffffffffffffffffffffffffff021916908373ffffffffffffffffffffffffffffffffffffffff16021790555050565b60008183019050828110151515611a2957fe5b80905092915050565b6000828211151515611a4057fe5b818303905092915050565b600080611adf60016002606060405190810160405280898152602001885181526020016000815250908060018154018082558091505090600182039060005260206000209060050201600090919290919091506000820151816000019080519060200190611aba9291906120d3565b5060208201518160010155604082015181600201555050611a3290919063ffffffff16565b9150336003600084815260200190815260200160002060006101000a81548173ffffffffffffffffffffffffffffffffffffffff021916908373ffffffffffffffffffffffffffffffffffffffff160217905550611b866001600460003373ffffffffffffffffffffffffffffffffffffffff1673ffffffffffffffffffffffffffffffffffffffff16815260200190815260200160002054611a1690919063ffffffff16565b600460003373ffffffffffffffffffffffffffffffffffffffff1673ffffffffffffffffffffffffffffffffffffffff16815260200190815260200160002081905550600090505b600282815481101515611bdd57fe5b906000526020600020906005020160010154811015611c9c5760408051908101604052808583815181101515611c0f57fe5b9060200190602002015181526020018483815181101515611c2c57fe5b90602001906020020151815250600283815481101515611c4857fe5b906000526020600020906005020160040160008381526020019081526020016000206000820151816000015560208201518160010155905050611c95600182611a1690919063ffffffff16565b9050611bce565b7f631da1651c04ffead99053a9d1c3424a67b2bc55b5c80c0ed80616316495623b423384888888604051808781526020018673ffffffffffffffffffffffffffffffffffffffff1673ffffffffffffffffffffffffffffffffffffffff168152602001858152602001806020018060200180602001848103845287818151815260200191508051906020019080838360005b83811015611d49578082015181840152602081019050611d2e565b50505050905090810190601f168015611d765780820380516001836020036101000a031916815260200191505b50848103835286818151815260200191508051906020019060200280838360005b83811015611db2578082015181840152602081019050611d97565b50505050905001848103825285818151815260200191508051906020019060200280838360005b83811015611df4578082015181840152602081019050611dd9565b50505050905001995050505050505050505060405180910390a15050505050565b6040805190810160405280600781526020017f4f776e61626c65000000000000000000000000000000000000000000000000008152506040805190810160405280600581526020017f312e392e30000000000000000000000000000000000000000000000000000000815250611e8b82826110a2565b151515611e9757600080fd5b82600160006101000a81548173ffffffffffffffffffffffffffffffffffffffff021916908373ffffffffffffffffffffffffffffffffffffffff1602179055507fdd117a11c22118c9dee4b5a67ce578bc44529dce21ee0ccc439588fbb9fb4ea38282604051808060200180602001838103835285818151815260200191508051906020019080838360005b83811015611f3f578082015181840152602081019050611f24565b50505050905090810190601f168015611f6c5780820380516001836020036101000a031916815260200191505b50838103825284818151815260200191508051906020019080838360005b83811015611fa5578082015181840152602081019050611f8a565b50505050905090810190601f168015611fd25780820380516001836020036101000a031916815260200191505b5094505050505060405180910390a160016000836040518082805190602001908083835b60208310151561201b5780518252602082019150602081019050602083039250611ff6565b6001836020036101000a0380198251168184511680821785525050505050509050019150509081526020016040518091039020826040518082805190602001908083835b602083101515612084578051825260208201915060208101905060208303925061205f565b6001836020036101000a038019825116818451168082178552505050505050905001915050908152602001604051809103902060006101000a81548160ff021916908315150217905550505050565b828054600181600116156101000203166002900490600052602060002090601f016020900481019282601f1061211457805160ff1916838001178555612142565b82800160010185558215612142579182015b82811115612141578251825591602001919060010190612126565b5b50905061214f9190612153565b5090565b61217591905b80821115612171576000816000905550600101612159565b5090565b905600a165627a7a723058201d6c13ecba7f65f5b167a2903afd5ce9b7b96288968fa4db02c1d9e4b8cab0410029",
  "source": "pragma solidity ^0.4.21;\r\n\r\nimport \"openzeppelin-zos/contracts/math/SafeMath.sol\";\r\nimport \"openzeppelin-zos/contracts/lifecycle/Pausable.sol\";\r\n\r\ncontract AppFactory is Pausable {\r\n  using SafeMath for uint256;\r\n\r\n  event NewApp(uint256 _creationTime, address  _creator, uint256  _appId, string _appName, uint256[] _licenseFees, uint256[]  _licenseValidateTimes);\r\n\r\n\r\n\r\n  struct Customer{\r\n   address addr;\r\n   uint256 licenseId;\r\n   uint256 licenseStartTime;\r\n  }\r\n\r\n  struct LicenseType{\r\n   uint256 fee; // wei unit\r\n   uint256 validateTime; // seconds unit\r\n  }\r\n\r\n\r\n\r\n  struct App{\r\n   string name;\r\n   uint256 licenseTypeNum;\r\n   uint256 customersNum;\r\n   mapping(uint256 => Customer)  toCustomer;\r\n   mapping(uint256 => LicenseType)  toLicenseType;\r\n  }\r\n\r\n\r\n  uint256 constant public appFee = 0.01 ether; // 0.01 eth default\r\n\r\n  App[] internal apps;\r\n\r\n  mapping (uint256 => address) public appToOwner;\r\n  mapping (address => uint256) ownerAppCount;\r\n\r\n  modifier isAppOwner(uint256 _appId){\r\n    require(appToOwner[_appId] == msg.sender );\r\n    _;\r\n  }\r\n  /* function initialize(address _sender, uint256 _appFee) isInitializer(\"AppFactory\", \"0\") public {\r\n    Pausable.initialize(_sender);\r\n    appFee = _appFee;\r\n  } */\r\n  /* function AppFactory() public {\r\n    appFee = 0.01 ether;\r\n  } */\r\n  function _createApp(string _name, uint256[] _licenseFees, uint256[] _licenseValidateTimes) internal {\r\n   uint256 id = apps.push(App(_name,_licenseFees.length, 0)).sub(1);\r\n   appToOwner[id] = msg.sender;\r\n   ownerAppCount[msg.sender] = ownerAppCount[msg.sender].add(1);\r\n\r\n   for (uint256 i = 0; i < apps[id].licenseTypeNum; i=i.add(1)) {\r\n      apps[id].toLicenseType[i] = LicenseType(_licenseFees[i],_licenseValidateTimes[i]);\r\n   }\r\n   emit NewApp(now,msg.sender, id, _name,_licenseFees, _licenseValidateTimes);\r\n  }\r\n\r\n  function createFreeApp(string _name) external payable whenNotPaused {\r\n   require(msg.value >= appFee);\r\n   owner.transfer(appFee);\r\n   if(msg.value.sub(appFee) > 0){\r\n     msg.sender.transfer(msg.value.sub(appFee));\r\n   }\r\n   uint256[] memory licenseFees = new uint256[](1);\r\n   licenseFees[0] = 0 ether;\r\n   uint256[] memory licenseValidateTimes = new uint256[](1);\r\n\r\n   licenseValidateTimes[0] = 365*100 days;\r\n\r\n   _createApp(_name, licenseFees, licenseValidateTimes);\r\n  }\r\n\r\n  function createApp(string _name,uint256[] _licenseFees, uint256[] _licenseValidateTimes ) external payable whenNotPaused {\r\n   require(msg.value >= appFee);\r\n   require(_licenseFees.length == _licenseValidateTimes.length );\r\n   owner.transfer(appFee);\r\n   if(msg.value.sub(appFee) > 0){\r\n     msg.sender.transfer(msg.value.sub(appFee));\r\n   }\r\n   _createApp(_name,_licenseFees,_licenseValidateTimes);\r\n  }\r\n\r\n  function getYourApps() external view returns(uint256[]) {\r\n   uint256[] memory ids = new uint256[](ownerAppCount[msg.sender]);\r\n   uint256 counter = 0;\r\n   for (uint256 i = 0; i < apps.length; i=i.add(1)) {\r\n     if (appToOwner[i] == msg.sender) {\r\n       ids[counter] = i;\r\n       counter=counter.add(1);\r\n     }\r\n   }\r\n   return (ids);\r\n  }\r\n\r\n  function getAppBrief(uint256 _appId) external view isAppOwner(_appId)  returns(string , uint256 ,  uint256) {\r\n    App storage app = apps[_appId];\r\n    return (app.name, app.licenseTypeNum, app.customersNum);\r\n  }\r\n  function getAppLicenseList(uint256 _appId) external view isAppOwner(_appId)  returns( uint256[] , uint256[]  ) {\r\n     App storage app = apps[_appId];\r\n     uint256  licenseTypeNum = app.licenseTypeNum;\r\n     uint256[] memory licenseFees = new uint256[](licenseTypeNum);\r\n     uint256[] memory licenseValidateTimes = new uint256[](licenseTypeNum);\r\n     for (uint256 i = 0; i < licenseTypeNum; i=i.add(1)) {\r\n        LicenseType storage licenseType = app.toLicenseType[i];\r\n        licenseFees[i] = licenseType.fee;\r\n        licenseValidateTimes[i] = licenseType.validateTime;\r\n     }\r\n     return (licenseFees, licenseValidateTimes);\r\n  }\r\n  function getAppCustomerList(uint256 _appId) external view isAppOwner(_appId) returns( address[], uint256[] , uint256[]  ) {\r\n      App storage app = apps[_appId];\r\n      uint256  customersNum = app.customersNum;\r\n      address[] memory customerAddrs = new address[](customersNum);\r\n      uint256[] memory customerLicenseIds = new uint256[](customersNum);\r\n      uint256[] memory customerLicenseStartTimes = new uint256[](customersNum);\r\n\r\n      for (uint256 j = 0; j < customersNum; j=j.add(1)) {\r\n         Customer storage customer = app.toCustomer[j];\r\n         customerAddrs[j] = customer.addr;\r\n         customerLicenseIds[j] = customer.licenseId;\r\n         customerLicenseStartTimes[j] = customer.licenseStartTime;\r\n      }\r\n      return (customerAddrs, customerLicenseIds, customerLicenseStartTimes);\r\n  }\r\n  function getAllApps() external view  onlyOwner returns(uint256[]) {\r\n    uint256[] memory ids = new uint256[](apps.length);\r\n\r\n    for (uint256 i = 0; i < apps.length; i=i.add(1)) {\r\n        ids[i] = i;\r\n    }\r\n    return (ids);\r\n  }\r\n\r\n  /* function setAppFee(uint256 _newFee) external onlyOwner{\r\n    appFee = _newFee;\r\n  } */\r\n\r\n  function () payable public {}\r\n  function claim() external onlyOwner {\r\n      selfdestruct(msg.sender);\r\n  }\r\n\r\n}\r\n",
  "sourcePath": "D:\\work\\creative\\smartContract\\license\\contracts\\AppFactory.sol",
  "compiler": {
    "name": "solc",
    "version": "0.4.24+commit.e67f0147.Emscripten.clang"
  },
  "schemaVersion": "2.0.1",
  "updatedAt": "2018-09-06T07:45:50.811Z"
}