{
  "contractName": "LicenseV4",
  "abi": [
    {
      "constant": false,
      "inputs": [],
      "name": "withDraw",
      "outputs": [],
      "payable": false,
      "stateMutability": "nonpayable",
      "type": "function"
    },
    {
      "constant": false,
      "inputs": [
        {
          "name": "_appId",
          "type": "uint256"
        },
        {
          "name": "_licenseIds",
          "type": "uint256[]"
        },
        {
          "name": "_licenseOfflines",
          "type": "bool[]"
        }
      ],
      "name": "setAppLicenseOnlineStates",
      "outputs": [],
      "payable": false,
      "stateMutability": "nonpayable",
      "type": "function"
    },
    {
      "constant": false,
      "inputs": [],
      "name": "unpause",
      "outputs": [],
      "payable": false,
      "stateMutability": "nonpayable",
      "type": "function"
    },
    {
      "constant": true,
      "inputs": [
        {
          "name": "_appId",
          "type": "uint256"
        }
      ],
      "name": "getAppLicenseList",
      "outputs": [
        {
          "name": "",
          "type": "uint256[]"
        },
        {
          "name": "",
          "type": "uint256[]"
        },
        {
          "name": "",
          "type": "bool[]"
        }
      ],
      "payable": false,
      "stateMutability": "view",
      "type": "function"
    },
    {
      "constant": true,
      "inputs": [],
      "name": "paused",
      "outputs": [
        {
          "name": "",
          "type": "bool"
        }
      ],
      "payable": false,
      "stateMutability": "view",
      "type": "function"
    },
    {
      "constant": true,
      "inputs": [
        {
          "name": "_appId",
          "type": "uint256"
        }
      ],
      "name": "aCustomer",
      "outputs": [
        {
          "name": "isCustomer",
          "type": "bool"
        },
        {
          "name": "customerId",
          "type": "uint256"
        }
      ],
      "payable": false,
      "stateMutability": "view",
      "type": "function"
    },
    {
      "constant": true,
      "inputs": [],
      "name": "appFee",
      "outputs": [
        {
          "name": "",
          "type": "uint256"
        }
      ],
      "payable": false,
      "stateMutability": "view",
      "type": "function"
    },
    {
      "constant": false,
      "inputs": [
        {
          "name": "_newFee",
          "type": "uint256"
        }
      ],
      "name": "setAppFee",
      "outputs": [
        {
          "name": "",
          "type": "uint256"
        }
      ],
      "payable": false,
      "stateMutability": "nonpayable",
      "type": "function"
    },
    {
      "constant": false,
      "inputs": [],
      "name": "pause",
      "outputs": [],
      "payable": false,
      "stateMutability": "nonpayable",
      "type": "function"
    },
    {
      "constant": true,
      "inputs": [],
      "name": "owner",
      "outputs": [
        {
          "name": "",
          "type": "address"
        }
      ],
      "payable": false,
      "stateMutability": "view",
      "type": "function"
    },
    {
      "constant": false,
      "inputs": [
        {
          "name": "_name",
          "type": "string"
        },
        {
          "name": "_licenseFees",
          "type": "uint256[]"
        },
        {
          "name": "_licenseValidateTimes",
          "type": "uint256[]"
        }
      ],
      "name": "createApp",
      "outputs": [],
      "payable": true,
      "stateMutability": "payable",
      "type": "function"
    },
    {
      "constant": true,
      "inputs": [
        {
          "name": "_appId",
          "type": "uint256"
        }
      ],
      "name": "getAppCustomerList",
      "outputs": [
        {
          "name": "",
          "type": "address[]"
        },
        {
          "name": "",
          "type": "uint256[]"
        },
        {
          "name": "",
          "type": "uint256[]"
        }
      ],
      "payable": false,
      "stateMutability": "view",
      "type": "function"
    },
    {
      "constant": false,
      "inputs": [
        {
          "name": "_appId",
          "type": "uint256"
        },
        {
          "name": "_licenseId",
          "type": "uint256"
        }
      ],
      "name": "applyLicense",
      "outputs": [],
      "payable": true,
      "stateMutability": "payable",
      "type": "function"
    },
    {
      "constant": true,
      "inputs": [],
      "name": "getAllApps",
      "outputs": [
        {
          "name": "",
          "type": "uint256[]"
        }
      ],
      "payable": false,
      "stateMutability": "view",
      "type": "function"
    },
    {
      "constant": true,
      "inputs": [
        {
          "name": "",
          "type": "uint256"
        }
      ],
      "name": "appToOwner",
      "outputs": [
        {
          "name": "",
          "type": "address"
        }
      ],
      "payable": false,
      "stateMutability": "view",
      "type": "function"
    },
    {
      "constant": true,
      "inputs": [
        {
          "name": "contractName",
          "type": "string"
        },
        {
          "name": "migrationId",
          "type": "string"
        }
      ],
      "name": "isMigrated",
      "outputs": [
        {
          "name": "",
          "type": "bool"
        }
      ],
      "payable": false,
      "stateMutability": "view",
      "type": "function"
    },
    {
      "constant": false,
      "inputs": [
        {
          "name": "_sender",
          "type": "address"
        }
      ],
      "name": "initialize",
      "outputs": [],
      "payable": false,
      "stateMutability": "nonpayable",
      "type": "function"
    },
    {
      "constant": true,
      "inputs": [],
      "name": "getYourApps",
      "outputs": [
        {
          "name": "",
          "type": "uint256[]"
        }
      ],
      "payable": false,
      "stateMutability": "view",
      "type": "function"
    },
    {
      "constant": false,
      "inputs": [
        {
          "name": "_sender",
          "type": "address"
        },
        {
          "name": "_appFee",
          "type": "uint256"
        }
      ],
      "name": "initialize",
      "outputs": [],
      "payable": false,
      "stateMutability": "nonpayable",
      "type": "function"
    },
    {
      "constant": true,
      "inputs": [
        {
          "name": "_appId",
          "type": "uint256"
        }
      ],
      "name": "getAppBrief",
      "outputs": [
        {
          "name": "",
          "type": "string"
        },
        {
          "name": "",
          "type": "uint256"
        },
        {
          "name": "",
          "type": "uint256"
        }
      ],
      "payable": false,
      "stateMutability": "view",
      "type": "function"
    },
    {
      "constant": false,
      "inputs": [
        {
          "name": "_name",
          "type": "string"
        }
      ],
      "name": "createFreeApp",
      "outputs": [],
      "payable": true,
      "stateMutability": "payable",
      "type": "function"
    },
    {
      "constant": false,
      "inputs": [
        {
          "name": "newOwner",
          "type": "address"
        }
      ],
      "name": "transferOwnership",
      "outputs": [],
      "payable": false,
      "stateMutability": "nonpayable",
      "type": "function"
    },
    {
      "constant": true,
      "inputs": [
        {
          "name": "_appId",
          "type": "uint256"
        }
      ],
      "name": "getLicenseInfo",
      "outputs": [
        {
          "name": "isCustomer",
          "type": "bool"
        },
        {
          "name": "licenseId",
          "type": "uint256"
        },
        {
          "name": "licenseValidateTime",
          "type": "uint256"
        },
        {
          "name": "licenseStartTime",
          "type": "uint256"
        },
        {
          "name": "licenseValidate",
          "type": "bool"
        }
      ],
      "payable": false,
      "stateMutability": "view",
      "type": "function"
    },
    {
      "anonymous": false,
      "inputs": [
        {
          "indexed": false,
          "name": "_applyTime",
          "type": "uint256"
        },
        {
          "indexed": true,
          "name": "_applior",
          "type": "address"
        },
        {
          "indexed": true,
          "name": "_appId",
          "type": "uint256"
        },
        {
          "indexed": true,
          "name": "_licenseId",
          "type": "uint256"
        },
        {
          "indexed": false,
          "name": "_licenseFee",
          "type": "uint256"
        },
        {
          "indexed": false,
          "name": "_licenseValidateTime",
          "type": "uint256"
        },
        {
          "indexed": false,
          "name": "_LicenseStartTime",
          "type": "uint256"
        }
      ],
      "name": "NewCustomer",
      "type": "event"
    },
    {
      "anonymous": false,
      "inputs": [
        {
          "indexed": false,
          "name": "_updateTime",
          "type": "uint256"
        },
        {
          "indexed": true,
          "name": "_applior",
          "type": "address"
        },
        {
          "indexed": true,
          "name": "_appId",
          "type": "uint256"
        },
        {
          "indexed": false,
          "name": "_oldLicenseId",
          "type": "uint256"
        },
        {
          "indexed": false,
          "name": "_oldLicenseStartTime",
          "type": "uint256"
        },
        {
          "indexed": true,
          "name": "_newLicenseId",
          "type": "uint256"
        },
        {
          "indexed": false,
          "name": "_newLicenseFee",
          "type": "uint256"
        },
        {
          "indexed": false,
          "name": "_newLicenseValideTime",
          "type": "uint256"
        },
        {
          "indexed": false,
          "name": "_newLicenseStartTime",
          "type": "uint256"
        }
      ],
      "name": "UpdateCustomer",
      "type": "event"
    },
    {
      "anonymous": false,
      "inputs": [
        {
          "indexed": false,
          "name": "_creationTime",
          "type": "uint256"
        },
        {
          "indexed": false,
          "name": "_creator",
          "type": "address"
        },
        {
          "indexed": true,
          "name": "_appId",
          "type": "uint256"
        },
        {
          "indexed": false,
          "name": "_appName",
          "type": "string"
        },
        {
          "indexed": false,
          "name": "_licenseFees",
          "type": "uint256[]"
        },
        {
          "indexed": false,
          "name": "_licenseValidateTimes",
          "type": "uint256[]"
        }
      ],
      "name": "NewApp",
      "type": "event"
    },
    {
      "anonymous": false,
      "inputs": [
        {
          "indexed": false,
          "name": "_updateTime",
          "type": "uint256"
        },
        {
          "indexed": false,
          "name": "_appOwner",
          "type": "address"
        },
        {
          "indexed": true,
          "name": "_appId",
          "type": "uint256"
        },
        {
          "indexed": false,
          "name": "_licenseIds",
          "type": "uint256[]"
        },
        {
          "indexed": false,
          "name": "_licenseOfflines",
          "type": "bool[]"
        }
      ],
      "name": "UpdateAppLicenses",
      "type": "event"
    },
    {
      "anonymous": false,
      "inputs": [
        {
          "indexed": false,
          "name": "_updateTime",
          "type": "uint256"
        },
        {
          "indexed": false,
          "name": "_appOwner",
          "type": "address"
        },
        {
          "indexed": false,
          "name": "_preFee",
          "type": "uint256"
        },
        {
          "indexed": false,
          "name": "_newFee",
          "type": "uint256"
        }
      ],
      "name": "UpdateGlobalAppCreationFee",
      "type": "event"
    },
    {
      "anonymous": false,
      "inputs": [],
      "name": "Pause",
      "type": "event"
    },
    {
      "anonymous": false,
      "inputs": [],
      "name": "Unpause",
      "type": "event"
    },
    {
      "anonymous": false,
      "inputs": [
        {
          "indexed": true,
          "name": "previousOwner",
          "type": "address"
        },
        {
          "indexed": true,
          "name": "newOwner",
          "type": "address"
        }
      ],
      "name": "OwnershipTransferred",
      "type": "event"
    },
    {
      "anonymous": false,
      "inputs": [
        {
          "indexed": false,
          "name": "contractName",
          "type": "string"
        },
        {
          "indexed": false,
          "name": "migrationId",
          "type": "string"
        }
      ],
      "name": "Migrated",
      "type": "event"
    },
    {
      "constant": true,
      "inputs": [
        {
          "name": "_appId",
          "type": "uint256"
        },
        {
          "name": "_address",
          "type": "address"
        }
      ],
      "name": "aCustomerByOwner",
      "outputs": [
        {
          "name": "isCustomer",
          "type": "bool"
        },
        {
          "name": "customerId",
          "type": "uint256"
        }
      ],
      "payable": false,
      "stateMutability": "view",
      "type": "function"
    },
    {
      "constant": false,
      "inputs": [
        {
          "name": "_appId",
          "type": "uint256"
        },
        {
          "name": "_licenseId",
          "type": "uint256"
        },
        {
          "name": "_other",
          "type": "address"
        }
      ],
      "name": "applyLicenseByOwner",
      "outputs": [],
      "payable": true,
      "stateMutability": "payable",
      "type": "function"
    }
  ],
  "bytecode": "0x60806040526000600160146101000a81548160ff02191690831515021790555034801561002b57600080fd5b506136398061003b6000396000f300608060405260043610610149576000357c0100000000000000000000000000000000000000000000000000000000900463ffffffff1680630fdb1c101461014e578063200b00a41461016557806322d39689146101c25780633f4ba83a1461022e578063598528c2146102455780635c975abb146103575780636ca848121461038657806370160fc5146103d25780637ea5482a146103fd5780638456cb591461043e5780638da5cb5b146104555780639d22b688146104ac578063a2a8c2d01461050a578063a47fceee1461061c578063a87ed55314610646578063b4394aa614610690578063b7868086146106fc578063c0bac1a814610769578063c4d66de814610830578063cb7986f914610873578063cd6dc687146108df578063cea40aa81461092c578063e4a84379146109e0578063f2fde38b14610a0e578063f3c2cf6514610a51575b600080fd5b34801561015a57600080fd5b50610163610ab6565b005b34801561017157600080fd5b506101c060048036038101908080359060200190929190803590602001908201803590602001919091929391929390803590602001908201803590602001919091929391929390505050610b72565b005b3480156101ce57600080fd5b5061020d60048036038101908080359060200190929190803573ffffffffffffffffffffffffffffffffffffffff169060200190929190505050610df6565b60405180831515151581526020018281526020019250505060405180910390f35b34801561023a57600080fd5b50610243610f61565b005b34801561025157600080fd5b5061027060048036038101908080359060200190929190505050611021565b60405180806020018060200180602001848103845287818151815260200191508051906020019060200280838360005b838110156102bb5780820151818401526020810190506102a0565b50505050905001848103835286818151815260200191508051906020019060200280838360005b838110156102fd5780820151818401526020810190506102e2565b50505050905001848103825285818151815260200191508051906020019060200280838360005b8381101561033f578082015181840152602081019050610324565b50505050905001965050505050505060405180910390f35b34801561036357600080fd5b5061036c6111b9565b604051808215151515815260200191505060405180910390f35b34801561039257600080fd5b506103b1600480360381019080803590602001909291905050506111cc565b60405180831515151581526020018281526020019250505060405180910390f35b3480156103de57600080fd5b506103e76112c5565b6040518082815260200191505060405180910390f35b34801561040957600080fd5b50610428600480360381019080803590602001909291905050506112cb565b6040518082815260200191505060405180910390f35b34801561044a57600080fd5b506104536113cf565b005b34801561046157600080fd5b5061046a61148f565b604051808273ffffffffffffffffffffffffffffffffffffffff1673ffffffffffffffffffffffffffffffffffffffff16815260200191505060405180910390f35b6105086004803603810190808035906020019082018035906020019190919293919293908035906020019082018035906020019190919293919293908035906020019082018035906020019190919293919293905050506114b5565b005b34801561051657600080fd5b506105356004803603810190808035906020019092919050505061167d565b60405180806020018060200180602001848103845287818151815260200191508051906020019060200280838360005b83811015610580578082015181840152602081019050610565565b50505050905001848103835286818151815260200191508051906020019060200280838360005b838110156105c25780820151818401526020810190506105a7565b50505050905001848103825285818151815260200191508051906020019060200280838360005b838110156106045780820151818401526020810190506105e9565b50505050905001965050505050505060405180910390f35b61064460048036038101908080359060200190929190803590602001909291905050506118bf565b005b61068e6004803603810190808035906020019092919080359060200190929190803573ffffffffffffffffffffffffffffffffffffffff169060200190929190505050611cb5565b005b34801561069c57600080fd5b506106a561211c565b6040518080602001828103825283818151815260200191508051906020019060200280838360005b838110156106e85780820151818401526020810190506106cd565b505050509050019250505060405180910390f35b34801561070857600080fd5b5061072760048036038101908080359060200190929190505050612206565b604051808273ffffffffffffffffffffffffffffffffffffffff1673ffffffffffffffffffffffffffffffffffffffff16815260200191505060405180910390f35b34801561077557600080fd5b50610816600480360381019080803590602001908201803590602001908080601f0160208091040260200160405190810160405280939291908181526020018383808284378201915050505050509192919290803590602001908201803590602001908080601f0160208091040260200160405190810160405280939291908181526020018383808284378201915050505050509192919290505050612239565b604051808215151515815260200191505060405180910390f35b34801561083c57600080fd5b50610871600480360381019080803573ffffffffffffffffffffffffffffffffffffffff169060200190929190505050612324565b005b34801561087f57600080fd5b506108886125aa565b6040518080602001828103825283818151815260200191508051906020019060200280838360005b838110156108cb5780820151818401526020810190506108b0565b505050509050019250505060405180910390f35b3480156108eb57600080fd5b5061092a600480360381019080803573ffffffffffffffffffffffffffffffffffffffff169060200190929190803590602001909291905050506126f6565b005b34801561093857600080fd5b5061095760048036038101908080359060200190929190505050612984565b6040518080602001848152602001838152602001828103825285818151815260200191508051906020019080838360005b838110156109a3578082015181840152602081019050610988565b50505050905090810190601f1680156109d05780820380516001836020036101000a031916815260200191505b5094505050505060405180910390f35b610a0c600480360381019080803590602001908201803590602001919091929391929390505050612a62565b005b348015610a1a57600080fd5b50610a4f600480360381019080803573ffffffffffffffffffffffffffffffffffffffff169060200190929190505050612c60565b005b348015610a5d57600080fd5b50610a7c60048036038101908080359060200190929190505050612db8565b6040518086151515158152602001858152602001848152602001838152602001821515151581526020019550505050505060405180910390f35b600160009054906101000a900473ffffffffffffffffffffffffffffffffffffffff1673ffffffffffffffffffffffffffffffffffffffff163373ffffffffffffffffffffffffffffffffffffffff16141515610b1257600080fd5b3373ffffffffffffffffffffffffffffffffffffffff166108fc3073ffffffffffffffffffffffffffffffffffffffff16319081150290604051600060405180830381858888f19350505050158015610b6f573d6000803e3d6000fd5b50565b600080600080883373ffffffffffffffffffffffffffffffffffffffff166004600083815260200190815260200160002060009054906101000a900473ffffffffffffffffffffffffffffffffffffffff1673ffffffffffffffffffffffffffffffffffffffff16141515610be657600080fd5b600160149054906101000a900460ff16151515610c0257600080fd5b60008a10158015610c1757506003805490508a105b1515610c2257600080fd5b8686905089899050141515610c3657600080fd5b60038a815481101515610c4557fe5b90600052602060002090600502019450600093505b88889050841015610d34578888858181101515610c7357fe5b90506020020135925060008310158015610c905750846001015483105b1515610c9b57600080fd5b84600401600084815260200190815260200160002091508686858181101515610cc057fe5b90506020020135151515158260020160009054906101000a900460ff161515141515610d19578686858181101515610cf457fe5b9050602002013515158260020160006101000a81548160ff0219169083151502179055505b610d2d600185612e8890919063ffffffff16565b9350610c5a565b897f9915228889c3fc580aaf9ef33f0526ed631d30e98de792b8be111266ac1c257142338c8c8c8c604051808781526020018673ffffffffffffffffffffffffffffffffffffffff1673ffffffffffffffffffffffffffffffffffffffff168152602001806020018060200183810383528787828181526020019250602002808284378201915050838103825285858281815260200192506020028082843782019150509850505050505050505060405180910390a250505050505050505050565b6000806000806000863373ffffffffffffffffffffffffffffffffffffffff166004600083815260200190815260200160002060009054906101000a900473ffffffffffffffffffffffffffffffffffffffff1673ffffffffffffffffffffffffffffffffffffffff16141515610e6c57600080fd5b60008810158015610e81575060038054905088105b1515610e8c57600080fd5b600388815481101515610e9b57fe5b9060005260206000209060050201935060009550600092505b8360020154831015610f565783600301600084815260200190815260200160002091508673ffffffffffffffffffffffffffffffffffffffff168260000160009054906101000a900473ffffffffffffffffffffffffffffffffffffffff1673ffffffffffffffffffffffffffffffffffffffff161415610f3b5760019550829450610f56565b610f4f600184612e8890919063ffffffff16565b9250610eb4565b505050509250929050565b600160009054906101000a900473ffffffffffffffffffffffffffffffffffffffff1673ffffffffffffffffffffffffffffffffffffffff163373ffffffffffffffffffffffffffffffffffffffff16141515610fbd57600080fd5b600160149054906101000a900460ff161515610fd857600080fd5b6000600160146101000a81548160ff0219169083151502179055507f7805862f689e2f13df9f062ff482ad3ad112aca9e0847911ed832e158c525b3360405160405180910390a1565b6060806060600080606080606060008060038b81548110151561104057fe5b9060005260206000209060050201965086600101549550856040519080825280602002602001820160405280156110865781602001602082028038833980820191505090505b509450856040519080825280602002602001820160405280156110b85781602001602082028038833980820191505090505b509350856040519080825280602002602001820160405280156110ea5781602001602082028038833980820191505090505b509250600091505b858210156111a25786600401600083815260200190815260200160002090508060000154858381518110151561112457fe5b90602001906020020181815250508060010154848381518110151561114557fe5b90602001906020020181815250508060020160009054906101000a900460ff16838381518110151561117357fe5b906020019060200201901515908115158152505061119b600183612e8890919063ffffffff16565b91506110f2565b848484995099509950505050505050509193909250565b600160149054906101000a900460ff1681565b60008060008060008086101580156111e8575060038054905086105b15156111f357600080fd5b60038681548110151561120257fe5b9060005260206000209060050201925060009450600091505b82600201548210156112bd5782600301600083815260200190815260200160002090503373ffffffffffffffffffffffffffffffffffffffff168160000160009054906101000a900473ffffffffffffffffffffffffffffffffffffffff1673ffffffffffffffffffffffffffffffffffffffff1614156112a257600194508193506112bd565b6112b6600183612e8890919063ffffffff16565b915061121b565b505050915091565b60025481565b600080600160009054906101000a900473ffffffffffffffffffffffffffffffffffffffff1673ffffffffffffffffffffffffffffffffffffffff163373ffffffffffffffffffffffffffffffffffffffff1614151561132a57600080fd5b600254831415151561133b57600080fd5b6002549050826002819055507f88baf3d55c73de3daf241b46e77dc4fbdeb5e9949c4ddff3761406b954134de0423383600254604051808581526020018473ffffffffffffffffffffffffffffffffffffffff1673ffffffffffffffffffffffffffffffffffffffff16815260200183815260200182815260200194505050505060405180910390a1600254915050919050565b600160009054906101000a900473ffffffffffffffffffffffffffffffffffffffff1673ffffffffffffffffffffffffffffffffffffffff163373ffffffffffffffffffffffffffffffffffffffff1614151561142b57600080fd5b600160149054906101000a900460ff1615151561144757600080fd5b60018060146101000a81548160ff0219169083151502179055507f6985a02210a168e66602d3235cb6db0e70f92b3ba4d376a33c0f3d9434bff62560405160405180910390a1565b600160009054906101000a900473ffffffffffffffffffffffffffffffffffffffff1681565b600160149054906101000a900460ff161515156114d157600080fd5b60025434101515156114e257600080fd5b81819050848490501415156114f657600080fd5b600160009054906101000a900473ffffffffffffffffffffffffffffffffffffffff1673ffffffffffffffffffffffffffffffffffffffff166108fc6002549081150290604051600060405180830381858888f19350505050158015611560573d6000803e3d6000fd5b50600061157860025434612ea490919063ffffffff16565b11156115da573373ffffffffffffffffffffffffffffffffffffffff166108fc6115ad60025434612ea490919063ffffffff16565b9081150290604051600060405180830381858888f193505050501580156115d8573d6000803e3d6000fd5b505b61167586868080601f016020809104026020016040519081016040528093929190818152602001838380828437820191505050505050858580806020026020016040519081016040528093929190818152602001838360200280828437820191505050505050848480806020026020016040519081016040528093929190818152602001838360200280828437820191505050505050612ebd565b505050505050565b606080606060008060608060606000808a3373ffffffffffffffffffffffffffffffffffffffff166004600083815260200190815260200160002060009054906101000a900473ffffffffffffffffffffffffffffffffffffffff1673ffffffffffffffffffffffffffffffffffffffff161415156116fb57600080fd5b60038c81548110151561170a57fe5b9060005260206000209060050201975087600201549650866040519080825280602002602001820160405280156117505781602001602082028038833980820191505090505b509550866040519080825280602002602001820160405280156117825781602001602082028038833980820191505090505b509450866040519080825280602002602001820160405280156117b45781602001602082028038833980820191505090505b509350600092505b868310156118a75787600301600084815260200190815260200160002091508160000160009054906101000a900473ffffffffffffffffffffffffffffffffffffffff16868481518110151561180e57fe5b9060200190602002019073ffffffffffffffffffffffffffffffffffffffff16908173ffffffffffffffffffffffffffffffffffffffff16815250508160010154858481518110151561185d57fe5b90602001906020020181815250508160020154848481518110151561187e57fe5b90602001906020020181815250506118a0600184612e8890919063ffffffff16565b92506117bc565b8585859a509a509a5050505050505050509193909250565b600080600080600080600080600160149054906101000a900460ff161515156118e757600080fd5b60008a101580156118fc57506003805490508a105b151561190757600080fd5b60038a81548110151561191657fe5b906000526020600020906005020197506000891015801561193a5750876001015489105b151561194557600080fd5b8760040160008a81526020019081526020016000209650600015158760020160009054906101000a900460ff16151514151561198057600080fd5b8660000154341015151561199357600080fd5b600460008b815260200190815260200160002060009054906101000a900473ffffffffffffffffffffffffffffffffffffffff1673ffffffffffffffffffffffffffffffffffffffff166108fc88600001549081150290604051600060405180830381858888f19350505050158015611a10573d6000803e3d6000fd5b506000611a2a886000015434612ea490919063ffffffff16565b1115611a8e573373ffffffffffffffffffffffffffffffffffffffff166108fc611a61896000015434612ea490919063ffffffff16565b9081150290604051600060405180830381858888f19350505050158015611a8c573d6000803e3d6000fd5b505b611a978a6111cc565b8096508197505050600115158615151415611b6c5787600301600086815260200190815260200160002093508360010154925083600201549150888460010181905550428460020181905550888a3373ffffffffffffffffffffffffffffffffffffffff167f58e8df1508156a02742ce0ddbe7f07efea0a069e9f3af45eacdd4462b6e80ce84287878d600001548e600101548c6002015460405180878152602001868152602001858152602001848152602001838152602001828152602001965050505050505060405180910390a4611ca9565b4290506060604051908101604052803373ffffffffffffffffffffffffffffffffffffffff1681526020018a8152602001828152508860030160008a60020154815260200190815260200160002060008201518160000160006101000a81548173ffffffffffffffffffffffffffffffffffffffff021916908373ffffffffffffffffffffffffffffffffffffffff1602179055506020820151816001015560408201518160020155905050611c3060018960020154612e8890919063ffffffff16565b8860020181905550888a3373ffffffffffffffffffffffffffffffffffffffff167f97b9b1d05a99593c6513e3ba5138709b2699bdca0bad47048d558dd88058cddb428b600001548c60010154876040518085815260200184815260200183815260200182815260200194505050505060405180910390a45b50505050505050505050565b6000806000806000806000808a3373ffffffffffffffffffffffffffffffffffffffff166004600083815260200190815260200160002060009054906101000a900473ffffffffffffffffffffffffffffffffffffffff1673ffffffffffffffffffffffffffffffffffffffff16141515611d2f57600080fd5b600160149054906101000a900460ff16151515611d4b57600080fd5b60008c10158015611d6057506003805490508c105b1515611d6b57600080fd5b60038c815481101515611d7a57fe5b9060005260206000209060050201985060008b10158015611d9e575088600101548b105b1515611da957600080fd5b8860040160008c81526020019081526020016000209750600015158860020160009054906101000a900460ff161515141515611de457600080fd5b87600001543410151515611df757600080fd5b600460008d815260200190815260200160002060009054906101000a900473ffffffffffffffffffffffffffffffffffffffff1673ffffffffffffffffffffffffffffffffffffffff166108fc89600001549081150290604051600060405180830381858888f19350505050158015611e74573d6000803e3d6000fd5b506000611e8e896000015434612ea490919063ffffffff16565b1115611ef2573373ffffffffffffffffffffffffffffffffffffffff166108fc611ec58a6000015434612ea490919063ffffffff16565b9081150290604051600060405180830381858888f19350505050158015611ef0573d6000803e3d6000fd5b505b611efc8c8b610df6565b8097508198505050600115158715151415611fd157886003016000878152602001908152602001600020945084600101549350846002015492508a85600101819055504285600201819055508a8c8b73ffffffffffffffffffffffffffffffffffffffff167f58e8df1508156a02742ce0ddbe7f07efea0a069e9f3af45eacdd4462b6e80ce84288888e600001548f600101548d6002015460405180878152602001868152602001858152602001848152602001838152602001828152602001965050505050505060405180910390a461210e565b4291506060604051908101604052808b73ffffffffffffffffffffffffffffffffffffffff1681526020018c8152602001838152508960030160008b60020154815260200190815260200160002060008201518160000160006101000a81548173ffffffffffffffffffffffffffffffffffffffff021916908373ffffffffffffffffffffffffffffffffffffffff160217905550602082015181600101556040820151816002015590505061209560018a60020154612e8890919063ffffffff16565b89600201819055508a8c8b73ffffffffffffffffffffffffffffffffffffffff167f97b9b1d05a99593c6513e3ba5138709b2699bdca0bad47048d558dd88058cddb428c600001548d60010154886040518085815260200184815260200183815260200182815260200194505050505060405180910390a45b505050505050505050505050565b6060806000600160009054906101000a900473ffffffffffffffffffffffffffffffffffffffff1673ffffffffffffffffffffffffffffffffffffffff163373ffffffffffffffffffffffffffffffffffffffff1614151561217d57600080fd5b6003805490506040519080825280602002602001820160405280156121b15781602001602082028038833980820191505090505b509150600090505b6003805490508110156121fe578082828151811015156121d557fe5b90602001906020020181815250506121f7600182612e8890919063ffffffff16565b90506121b9565b819250505090565b60046020528060005260406000206000915054906101000a900473ffffffffffffffffffffffffffffffffffffffff1681565b600080836040518082805190602001908083835b602083101515612272578051825260208201915060208101905060208303925061224d565b6001836020036101000a0380198251168184511680821785525050505050509050019150509081526020016040518091039020826040518082805190602001908083835b6020831015156122db57805182526020820191506020810190506020830392506122b6565b6001836020036101000a038019825116818451168082178552505050505050905001915050908152602001604051809103902060009054906101000a900460ff16905092915050565b6040805190810160405280600881526020017f5061757361626c650000000000000000000000000000000000000000000000008152506040805190810160405280600581526020017f312e392e3000000000000000000000000000000000000000000000000000000081525061239a8282612239565b1515156123a657600080fd5b6123af836132aa565b7fdd117a11c22118c9dee4b5a67ce578bc44529dce21ee0ccc439588fbb9fb4ea38282604051808060200180602001838103835285818151815260200191508051906020019080838360005b838110156124165780820151818401526020810190506123fb565b50505050905090810190601f1680156124435780820380516001836020036101000a031916815260200191505b50838103825284818151815260200191508051906020019080838360005b8381101561247c578082015181840152602081019050612461565b50505050905090810190601f1680156124a95780820380516001836020036101000a031916815260200191505b5094505050505060405180910390a160016000836040518082805190602001908083835b6020831015156124f257805182526020820191506020810190506020830392506124cd565b6001836020036101000a0380198251168184511680821785525050505050509050019150509081526020016040518091039020826040518082805190602001908083835b60208310151561255b5780518252602082019150602081019050602083039250612536565b6001836020036101000a038019825116818451168082178552505050505050905001915050908152602001604051809103902060006101000a81548160ff021916908315150217905550505050565b606080600080600560003373ffffffffffffffffffffffffffffffffffffffff1673ffffffffffffffffffffffffffffffffffffffff1681526020019081526020016000205460405190808252806020026020018201604052801561261e5781602001602082028038833980820191505090505b50925060009150600090505b6003805490508110156126ed573373ffffffffffffffffffffffffffffffffffffffff166004600083815260200190815260200160002060009054906101000a900473ffffffffffffffffffffffffffffffffffffffff1673ffffffffffffffffffffffffffffffffffffffff1614156126d2578083838151811015156126ad57fe5b90602001906020020181815250506126cf600183612e8890919063ffffffff16565b91505b6126e6600182612e8890919063ffffffff16565b905061262a565b82935050505090565b6040805190810160405280600a81526020017f417070466163746f7279000000000000000000000000000000000000000000008152506040805190810160405280600181526020017f300000000000000000000000000000000000000000000000000000000000000081525061276c8282612239565b15151561277857600080fd5b61278184612324565b826002819055507fdd117a11c22118c9dee4b5a67ce578bc44529dce21ee0ccc439588fbb9fb4ea38282604051808060200180602001838103835285818151815260200191508051906020019080838360005b838110156127ef5780820151818401526020810190506127d4565b50505050905090810190601f16801561281c5780820380516001836020036101000a031916815260200191505b50838103825284818151815260200191508051906020019080838360005b8381101561285557808201518184015260208101905061283a565b50505050905090810190601f1680156128825780820380516001836020036101000a031916815260200191505b5094505050505060405180910390a160016000836040518082805190602001908083835b6020831015156128cb57805182526020820191506020810190506020830392506128a6565b6001836020036101000a0380198251168184511680821785525050505050509050019150509081526020016040518091039020826040518082805190602001908083835b602083101515612934578051825260208201915060208101905060208303925061290f565b6001836020036101000a038019825116818451168082178552505050505050905001915050908152602001604051809103902060006101000a81548160ff02191690831515021790555050505050565b6060600080600060038581548110151561299a57fe5b906000526020600020906005020190508060000181600101548260020154828054600181600116156101000203166002900480601f016020809104026020016040519081016040528092919081815260200182805460018160011615610100020316600290048015612a4d5780601f10612a2257610100808354040283529160200191612a4d565b820191906000526020600020905b815481529060010190602001808311612a3057829003601f168201915b50505050509250935093509350509193909250565b606080600160149054906101000a900460ff16151515612a8157600080fd5b6002543410151515612a9257600080fd5b600160009054906101000a900473ffffffffffffffffffffffffffffffffffffffff1673ffffffffffffffffffffffffffffffffffffffff166108fc6002549081150290604051600060405180830381858888f19350505050158015612afc573d6000803e3d6000fd5b506000612b1460025434612ea490919063ffffffff16565b1115612b76573373ffffffffffffffffffffffffffffffffffffffff166108fc612b4960025434612ea490919063ffffffff16565b9081150290604051600060405180830381858888f19350505050158015612b74573d6000803e3d6000fd5b505b6001604051908082528060200260200182016040528015612ba65781602001602082028038833980820191505090505b5091506000826000815181101515612bba57fe5b90602001906020020181815250506001604051908082528060200260200182016040528015612bf85781602001602082028038833980820191505090505b50905063bbf81e00816000815181101515612c0f57fe5b9060200190602002018181525050612c5a84848080601f0160208091040260200160405190810160405280939291908181526020018383808284378201915050505050508383612ebd565b50505050565b600160009054906101000a900473ffffffffffffffffffffffffffffffffffffffff1673ffffffffffffffffffffffffffffffffffffffff163373ffffffffffffffffffffffffffffffffffffffff16141515612cbc57600080fd5b600073ffffffffffffffffffffffffffffffffffffffff168173ffffffffffffffffffffffffffffffffffffffff1614151515612cf857600080fd5b8073ffffffffffffffffffffffffffffffffffffffff16600160009054906101000a900473ffffffffffffffffffffffffffffffffffffffff1673ffffffffffffffffffffffffffffffffffffffff167f8be0079c531659141344cd1fd0a4f28419497f9722a3daafe3b4186f6b6457e060405160405180910390a380600160006101000a81548173ffffffffffffffffffffffffffffffffffffffff021916908373ffffffffffffffffffffffffffffffffffffffff16021790555050565b6000806000806000806000806000612dcf8a6111cc565b809550819a505050600115158915151415612e6a5760038a815481101515612df357fe5b906000526020600020906005020192508260030160008581526020019081526020016000209150816001015497508260040160008981526020019081526020016000209050806001015496508160020154955042612e6283600201548360010154612e8890919063ffffffff16565b119450612e7b565b600097506000965060009550600094505b5050505091939590929450565b60008183019050828110151515612e9b57fe5b80905092915050565b6000828211151515612eb257fe5b818303905092915050565b600080612f5160016003606060405190810160405280898152602001885181526020016000815250908060018154018082558091505090600182039060005260206000209060050201600090919290919091506000820151816000019080519060200190612f2c929190613568565b5060208201518160010155604082015181600201555050612ea490919063ffffffff16565b9150336004600084815260200190815260200160002060006101000a81548173ffffffffffffffffffffffffffffffffffffffff021916908373ffffffffffffffffffffffffffffffffffffffff160217905550612ff86001600560003373ffffffffffffffffffffffffffffffffffffffff1673ffffffffffffffffffffffffffffffffffffffff16815260200190815260200160002054612e8890919063ffffffff16565b600560003373ffffffffffffffffffffffffffffffffffffffff1673ffffffffffffffffffffffffffffffffffffffff16815260200190815260200160002081905550600090505b60038281548110151561304f57fe5b90600052602060002090600502016001015481101561313857606060405190810160405280858381518110151561308257fe5b906020019060200201518152602001848381518110151561309f57fe5b906020019060200201518152602001600015158152506003838154811015156130c457fe5b90600052602060002090600502016004016000838152602001908152602001600020600082015181600001556020820151816001015560408201518160020160006101000a81548160ff021916908315150217905550905050613131600182612e8890919063ffffffff16565b9050613040565b817f631da1651c04ffead99053a9d1c3424a67b2bc55b5c80c0ed80616316495623b4233888888604051808681526020018573ffffffffffffffffffffffffffffffffffffffff1673ffffffffffffffffffffffffffffffffffffffff168152602001806020018060200180602001848103845287818151815260200191508051906020019080838360005b838110156131df5780820151818401526020810190506131c4565b50505050905090810190601f16801561320c5780820380516001836020036101000a031916815260200191505b50848103835286818151815260200191508051906020019060200280838360005b8381101561324857808201518184015260208101905061322d565b50505050905001848103825285818151815260200191508051906020019060200280838360005b8381101561328a57808201518184015260208101905061326f565b505050509050019850505050505050505060405180910390a25050505050565b6040805190810160405280600781526020017f4f776e61626c65000000000000000000000000000000000000000000000000008152506040805190810160405280600581526020017f312e392e300000000000000000000000000000000000000000000000000000008152506133208282612239565b15151561332c57600080fd5b82600160006101000a81548173ffffffffffffffffffffffffffffffffffffffff021916908373ffffffffffffffffffffffffffffffffffffffff1602179055507fdd117a11c22118c9dee4b5a67ce578bc44529dce21ee0ccc439588fbb9fb4ea38282604051808060200180602001838103835285818151815260200191508051906020019080838360005b838110156133d45780820151818401526020810190506133b9565b50505050905090810190601f1680156134015780820380516001836020036101000a031916815260200191505b50838103825284818151815260200191508051906020019080838360005b8381101561343a57808201518184015260208101905061341f565b50505050905090810190601f1680156134675780820380516001836020036101000a031916815260200191505b5094505050505060405180910390a160016000836040518082805190602001908083835b6020831015156134b0578051825260208201915060208101905060208303925061348b565b6001836020036101000a0380198251168184511680821785525050505050509050019150509081526020016040518091039020826040518082805190602001908083835b60208310151561351957805182526020820191506020810190506020830392506134f4565b6001836020036101000a038019825116818451168082178552505050505050905001915050908152602001604051809103902060006101000a81548160ff021916908315150217905550505050565b828054600181600116156101000203166002900490600052602060002090601f016020900481019282601f106135a957805160ff19168380011785556135d7565b828001600101855582156135d7579182015b828111156135d65782518255916020019190600101906135bb565b5b5090506135e491906135e8565b5090565b61360a91905b808211156136065760008160009055506001016135ee565b5090565b905600a165627a7a723058208f46e402165db5494465f8ee3f9a823e19135ce2852777d42f237bd98694bf880029",
  "source": "pragma solidity ^0.4.21;\r\nimport \"./License.sol\";\r\n\r\ncontract LicenseV4 is License {\r\n\r\n  function aCustomerByOwner(uint256 _appId,address _address) public view isAppOwner(_appId) returns(bool isCustomer, uint256 customerId){\r\n    require(_appId >= 0 && _appId < apps.length);\r\n    App storage app = apps[_appId];\r\n    isCustomer = false;\r\n    for (uint256 i = 0; i < app.customersNum; i=i.add(1)) {\r\n      Customer storage customer = app.toCustomer[i];\r\n      if(customer.addr == _address){\r\n        isCustomer = true;\r\n        customerId = i;\r\n        break;\r\n      }\r\n    }\r\n  }\r\n\r\n  function applyLicenseByOwner(uint256 _appId,uint256 _licenseId, address _other) external payable isAppOwner(_appId) whenNotPaused {\r\n    require(_appId >= 0 && _appId < apps.length);\r\n    App storage app = apps[_appId];\r\n    require(_licenseId >= 0 && _licenseId < app.licenseTypeNum);\r\n    LicenseType storage license = app.toLicenseType[_licenseId];\r\n\r\n    // could not apply license already offlineAppLicense\r\n    require(license.offline==false);\r\n    require(msg.value >= license.fee);\r\n    appToOwner[_appId].transfer(license.fee);\r\n    if(msg.value.sub(license.fee) > 0){\r\n      msg.sender.transfer(msg.value.sub(license.fee));\r\n    }\r\n    bool isCustomer;\r\n    uint256 customerId;\r\n    (isCustomer, customerId) = aCustomerByOwner(_appId,_other);\r\n    if(isCustomer == true){\r\n      Customer storage customer = app.toCustomer[customerId];\r\n      uint256 oldLicenseId = customer.licenseId;\r\n      uint256 oldLicenseStartTime = customer.licenseStartTime;\r\n      customer.licenseId = _licenseId;\r\n      customer.licenseStartTime = now;\r\n      /* LicenseType storage oldLicense = app.toLicenseType[oldLicenseId]; */\r\n      emit UpdateCustomer(now, _other, _appId, oldLicenseId, oldLicenseStartTime, _licenseId, license.fee, license.validateTime, customer.licenseStartTime);\r\n\r\n    }else{\r\n      uint256 licenseStartTime = now;\r\n      app.toCustomer[app.customersNum]= Customer(_other,_licenseId,licenseStartTime);\r\n      app.customersNum = app.customersNum.add(1);\r\n      emit NewCustomer(now, _other, _appId, _licenseId, license.fee, license.validateTime, licenseStartTime);\r\n    }\r\n  }\r\n  /* function () payable public {} */\r\n\r\n}\r\n",
  "sourcePath": "D:\\work\\creative\\smartContract\\licenseContract\\contracts\\LicenseV4.sol",
  "compiler": {
    "name": "solc",
    "version": "0.4.24+commit.e67f0147.Emscripten.clang"
  },
  "schemaVersion": "2.0.1",
  "updatedAt": "2018-09-28T07:56:37.365Z"
}