{
  "contractName": "License",
  "abi": [
    {
      "constant": false,
      "inputs": [],
      "name": "withDraw",
      "outputs": [],
      "payable": false,
      "stateMutability": "nonpayable",
      "type": "function"
    },
    {
      "constant": false,
      "inputs": [
        {
          "name": "_appId",
          "type": "uint256"
        },
        {
          "name": "_licenseIds",
          "type": "uint256[]"
        },
        {
          "name": "_licenseOfflines",
          "type": "bool[]"
        }
      ],
      "name": "setAppLicenseOnlineStates",
      "outputs": [],
      "payable": false,
      "stateMutability": "nonpayable",
      "type": "function"
    },
    {
      "constant": false,
      "inputs": [],
      "name": "unpause",
      "outputs": [],
      "payable": false,
      "stateMutability": "nonpayable",
      "type": "function"
    },
    {
      "constant": true,
      "inputs": [
        {
          "name": "_appId",
          "type": "uint256"
        }
      ],
      "name": "getAppLicenseList",
      "outputs": [
        {
          "name": "",
          "type": "uint256[]"
        },
        {
          "name": "",
          "type": "uint256[]"
        },
        {
          "name": "",
          "type": "bool[]"
        }
      ],
      "payable": false,
      "stateMutability": "view",
      "type": "function"
    },
    {
      "constant": true,
      "inputs": [],
      "name": "paused",
      "outputs": [
        {
          "name": "",
          "type": "bool"
        }
      ],
      "payable": false,
      "stateMutability": "view",
      "type": "function"
    },
    {
      "constant": true,
      "inputs": [],
      "name": "appFee",
      "outputs": [
        {
          "name": "",
          "type": "uint256"
        }
      ],
      "payable": false,
      "stateMutability": "view",
      "type": "function"
    },
    {
      "constant": false,
      "inputs": [
        {
          "name": "_newFee",
          "type": "uint256"
        }
      ],
      "name": "setAppFee",
      "outputs": [
        {
          "name": "",
          "type": "uint256"
        }
      ],
      "payable": false,
      "stateMutability": "nonpayable",
      "type": "function"
    },
    {
      "constant": false,
      "inputs": [],
      "name": "pause",
      "outputs": [],
      "payable": false,
      "stateMutability": "nonpayable",
      "type": "function"
    },
    {
      "constant": true,
      "inputs": [],
      "name": "owner",
      "outputs": [
        {
          "name": "",
          "type": "address"
        }
      ],
      "payable": false,
      "stateMutability": "view",
      "type": "function"
    },
    {
      "constant": false,
      "inputs": [
        {
          "name": "_name",
          "type": "string"
        },
        {
          "name": "_licenseFees",
          "type": "uint256[]"
        },
        {
          "name": "_licenseValidateTimes",
          "type": "uint256[]"
        }
      ],
      "name": "createApp",
      "outputs": [],
      "payable": true,
      "stateMutability": "payable",
      "type": "function"
    },
    {
      "constant": true,
      "inputs": [
        {
          "name": "_appId",
          "type": "uint256"
        }
      ],
      "name": "getAppCustomerList",
      "outputs": [
        {
          "name": "",
          "type": "address[]"
        },
        {
          "name": "",
          "type": "uint256[]"
        },
        {
          "name": "",
          "type": "uint256[]"
        }
      ],
      "payable": false,
      "stateMutability": "view",
      "type": "function"
    },
    {
      "constant": true,
      "inputs": [],
      "name": "getAllApps",
      "outputs": [
        {
          "name": "",
          "type": "uint256[]"
        }
      ],
      "payable": false,
      "stateMutability": "view",
      "type": "function"
    },
    {
      "constant": true,
      "inputs": [
        {
          "name": "",
          "type": "uint256"
        }
      ],
      "name": "appToOwner",
      "outputs": [
        {
          "name": "",
          "type": "address"
        }
      ],
      "payable": false,
      "stateMutability": "view",
      "type": "function"
    },
    {
      "constant": true,
      "inputs": [
        {
          "name": "contractName",
          "type": "string"
        },
        {
          "name": "migrationId",
          "type": "string"
        }
      ],
      "name": "isMigrated",
      "outputs": [
        {
          "name": "",
          "type": "bool"
        }
      ],
      "payable": false,
      "stateMutability": "view",
      "type": "function"
    },
    {
      "constant": false,
      "inputs": [
        {
          "name": "_sender",
          "type": "address"
        }
      ],
      "name": "initialize",
      "outputs": [],
      "payable": false,
      "stateMutability": "nonpayable",
      "type": "function"
    },
    {
      "constant": true,
      "inputs": [],
      "name": "getYourApps",
      "outputs": [
        {
          "name": "",
          "type": "uint256[]"
        }
      ],
      "payable": false,
      "stateMutability": "view",
      "type": "function"
    },
    {
      "constant": false,
      "inputs": [
        {
          "name": "_sender",
          "type": "address"
        },
        {
          "name": "_appFee",
          "type": "uint256"
        }
      ],
      "name": "initialize",
      "outputs": [],
      "payable": false,
      "stateMutability": "nonpayable",
      "type": "function"
    },
    {
      "constant": true,
      "inputs": [
        {
          "name": "_appId",
          "type": "uint256"
        }
      ],
      "name": "getAppBrief",
      "outputs": [
        {
          "name": "",
          "type": "string"
        },
        {
          "name": "",
          "type": "uint256"
        },
        {
          "name": "",
          "type": "uint256"
        }
      ],
      "payable": false,
      "stateMutability": "view",
      "type": "function"
    },
    {
      "constant": false,
      "inputs": [
        {
          "name": "_name",
          "type": "string"
        }
      ],
      "name": "createFreeApp",
      "outputs": [],
      "payable": true,
      "stateMutability": "payable",
      "type": "function"
    },
    {
      "constant": false,
      "inputs": [
        {
          "name": "newOwner",
          "type": "address"
        }
      ],
      "name": "transferOwnership",
      "outputs": [],
      "payable": false,
      "stateMutability": "nonpayable",
      "type": "function"
    },
    {
      "anonymous": false,
      "inputs": [
        {
          "indexed": false,
          "name": "_applyTime",
          "type": "uint256"
        },
        {
          "indexed": true,
          "name": "_applior",
          "type": "address"
        },
        {
          "indexed": true,
          "name": "_appId",
          "type": "uint256"
        },
        {
          "indexed": true,
          "name": "_licenseId",
          "type": "uint256"
        },
        {
          "indexed": false,
          "name": "_licenseFee",
          "type": "uint256"
        },
        {
          "indexed": false,
          "name": "_licenseValidateTime",
          "type": "uint256"
        },
        {
          "indexed": false,
          "name": "_LicenseStartTime",
          "type": "uint256"
        }
      ],
      "name": "NewCustomer",
      "type": "event"
    },
    {
      "anonymous": false,
      "inputs": [
        {
          "indexed": false,
          "name": "_updateTime",
          "type": "uint256"
        },
        {
          "indexed": true,
          "name": "_applior",
          "type": "address"
        },
        {
          "indexed": true,
          "name": "_appId",
          "type": "uint256"
        },
        {
          "indexed": false,
          "name": "_oldLicenseId",
          "type": "uint256"
        },
        {
          "indexed": false,
          "name": "_oldLicenseStartTime",
          "type": "uint256"
        },
        {
          "indexed": true,
          "name": "_newLicenseId",
          "type": "uint256"
        },
        {
          "indexed": false,
          "name": "_newLicenseFee",
          "type": "uint256"
        },
        {
          "indexed": false,
          "name": "_newLicenseValideTime",
          "type": "uint256"
        },
        {
          "indexed": false,
          "name": "_newLicenseStartTime",
          "type": "uint256"
        }
      ],
      "name": "UpdateCustomer",
      "type": "event"
    },
    {
      "anonymous": false,
      "inputs": [
        {
          "indexed": false,
          "name": "_creationTime",
          "type": "uint256"
        },
        {
          "indexed": false,
          "name": "_creator",
          "type": "address"
        },
        {
          "indexed": true,
          "name": "_appId",
          "type": "uint256"
        },
        {
          "indexed": false,
          "name": "_appName",
          "type": "string"
        },
        {
          "indexed": false,
          "name": "_licenseFees",
          "type": "uint256[]"
        },
        {
          "indexed": false,
          "name": "_licenseValidateTimes",
          "type": "uint256[]"
        }
      ],
      "name": "NewApp",
      "type": "event"
    },
    {
      "anonymous": false,
      "inputs": [
        {
          "indexed": false,
          "name": "_updateTime",
          "type": "uint256"
        },
        {
          "indexed": false,
          "name": "_appOwner",
          "type": "address"
        },
        {
          "indexed": true,
          "name": "_appId",
          "type": "uint256"
        },
        {
          "indexed": false,
          "name": "_licenseIds",
          "type": "uint256[]"
        },
        {
          "indexed": false,
          "name": "_licenseOfflines",
          "type": "bool[]"
        }
      ],
      "name": "UpdateAppLicenses",
      "type": "event"
    },
    {
      "anonymous": false,
      "inputs": [
        {
          "indexed": false,
          "name": "_updateTime",
          "type": "uint256"
        },
        {
          "indexed": false,
          "name": "_appOwner",
          "type": "address"
        },
        {
          "indexed": false,
          "name": "_preFee",
          "type": "uint256"
        },
        {
          "indexed": false,
          "name": "_newFee",
          "type": "uint256"
        }
      ],
      "name": "UpdateGlobalAppCreationFee",
      "type": "event"
    },
    {
      "anonymous": false,
      "inputs": [],
      "name": "Pause",
      "type": "event"
    },
    {
      "anonymous": false,
      "inputs": [],
      "name": "Unpause",
      "type": "event"
    },
    {
      "anonymous": false,
      "inputs": [
        {
          "indexed": true,
          "name": "previousOwner",
          "type": "address"
        },
        {
          "indexed": true,
          "name": "newOwner",
          "type": "address"
        }
      ],
      "name": "OwnershipTransferred",
      "type": "event"
    },
    {
      "anonymous": false,
      "inputs": [
        {
          "indexed": false,
          "name": "contractName",
          "type": "string"
        },
        {
          "indexed": false,
          "name": "migrationId",
          "type": "string"
        }
      ],
      "name": "Migrated",
      "type": "event"
    },
    {
      "constant": true,
      "inputs": [
        {
          "name": "_appId",
          "type": "uint256"
        }
      ],
      "name": "aCustomer",
      "outputs": [
        {
          "name": "isCustomer",
          "type": "bool"
        },
        {
          "name": "customerId",
          "type": "uint256"
        }
      ],
      "payable": false,
      "stateMutability": "view",
      "type": "function"
    },
    {
      "constant": false,
      "inputs": [
        {
          "name": "_appId",
          "type": "uint256"
        },
        {
          "name": "_licenseId",
          "type": "uint256"
        }
      ],
      "name": "applyLicense",
      "outputs": [],
      "payable": true,
      "stateMutability": "payable",
      "type": "function"
    },
    {
      "constant": true,
      "inputs": [
        {
          "name": "_appId",
          "type": "uint256"
        }
      ],
      "name": "getLicenseInfo",
      "outputs": [
        {
          "name": "isCustomer",
          "type": "bool"
        },
        {
          "name": "licenseId",
          "type": "uint256"
        },
        {
          "name": "licenseValidateTime",
          "type": "uint256"
        },
        {
          "name": "licenseStartTime",
          "type": "uint256"
        },
        {
          "name": "licenseValidate",
          "type": "bool"
        }
      ],
      "payable": false,
      "stateMutability": "view",
      "type": "function"
    }
  ],
  "bytecode": "0x60806040526000600160146101000a81548160ff02191690831515021790555034801561002b57600080fd5b50612f9b8061003b6000396000f300608060405260043610610133576000357c0100000000000000000000000000000000000000000000000000000000900463ffffffff1680630fdb1c1014610138578063200b00a41461014f5780633f4ba83a146101ac578063598528c2146101c35780635c975abb146102d55780636ca848121461030457806370160fc5146103505780637ea5482a1461037b5780638456cb59146103bc5780638da5cb5b146103d35780639d22b6881461042a578063a2a8c2d014610488578063a47fceee1461059a578063b4394aa6146105c4578063b786808614610630578063c0bac1a81461069d578063c4d66de814610764578063cb7986f9146107a7578063cd6dc68714610813578063cea40aa814610860578063e4a8437914610914578063f2fde38b14610942578063f3c2cf6514610985575b600080fd5b34801561014457600080fd5b5061014d6109ea565b005b34801561015b57600080fd5b506101aa60048036038101908080359060200190929190803590602001908201803590602001919091929391929390803590602001908201803590602001919091929391929390505050610aa6565b005b3480156101b857600080fd5b506101c1610d2a565b005b3480156101cf57600080fd5b506101ee60048036038101908080359060200190929190505050610dea565b60405180806020018060200180602001848103845287818151815260200191508051906020019060200280838360005b8381101561023957808201518184015260208101905061021e565b50505050905001848103835286818151815260200191508051906020019060200280838360005b8381101561027b578082015181840152602081019050610260565b50505050905001848103825285818151815260200191508051906020019060200280838360005b838110156102bd5780820151818401526020810190506102a2565b50505050905001965050505050505060405180910390f35b3480156102e157600080fd5b506102ea610f82565b604051808215151515815260200191505060405180910390f35b34801561031057600080fd5b5061032f60048036038101908080359060200190929190505050610f95565b60405180831515151581526020018281526020019250505060405180910390f35b34801561035c57600080fd5b5061036561108e565b6040518082815260200191505060405180910390f35b34801561038757600080fd5b506103a660048036038101908080359060200190929190505050611094565b6040518082815260200191505060405180910390f35b3480156103c857600080fd5b506103d1611198565b005b3480156103df57600080fd5b506103e8611258565b604051808273ffffffffffffffffffffffffffffffffffffffff1673ffffffffffffffffffffffffffffffffffffffff16815260200191505060405180910390f35b61048660048036038101908080359060200190820180359060200191909192939192939080359060200190820180359060200191909192939192939080359060200190820180359060200191909192939192939050505061127e565b005b34801561049457600080fd5b506104b360048036038101908080359060200190929190505050611446565b60405180806020018060200180602001848103845287818151815260200191508051906020019060200280838360005b838110156104fe5780820151818401526020810190506104e3565b50505050905001848103835286818151815260200191508051906020019060200280838360005b83811015610540578082015181840152602081019050610525565b50505050905001848103825285818151815260200191508051906020019060200280838360005b83811015610582578082015181840152602081019050610567565b50505050905001965050505050505060405180910390f35b6105c26004803603810190808035906020019092919080359060200190929190505050611688565b005b3480156105d057600080fd5b506105d9611a7e565b6040518080602001828103825283818151815260200191508051906020019060200280838360005b8381101561061c578082015181840152602081019050610601565b505050509050019250505060405180910390f35b34801561063c57600080fd5b5061065b60048036038101908080359060200190929190505050611b68565b604051808273ffffffffffffffffffffffffffffffffffffffff1673ffffffffffffffffffffffffffffffffffffffff16815260200191505060405180910390f35b3480156106a957600080fd5b5061074a600480360381019080803590602001908201803590602001908080601f0160208091040260200160405190810160405280939291908181526020018383808284378201915050505050509192919290803590602001908201803590602001908080601f0160208091040260200160405190810160405280939291908181526020018383808284378201915050505050509192919290505050611b9b565b604051808215151515815260200191505060405180910390f35b34801561077057600080fd5b506107a5600480360381019080803573ffffffffffffffffffffffffffffffffffffffff169060200190929190505050611c86565b005b3480156107b357600080fd5b506107bc611f0c565b6040518080602001828103825283818151815260200191508051906020019060200280838360005b838110156107ff5780820151818401526020810190506107e4565b505050509050019250505060405180910390f35b34801561081f57600080fd5b5061085e600480360381019080803573ffffffffffffffffffffffffffffffffffffffff16906020019092919080359060200190929190505050612058565b005b34801561086c57600080fd5b5061088b600480360381019080803590602001909291905050506122e6565b6040518080602001848152602001838152602001828103825285818151815260200191508051906020019080838360005b838110156108d75780820151818401526020810190506108bc565b50505050905090810190601f1680156109045780820380516001836020036101000a031916815260200191505b5094505050505060405180910390f35b6109406004803603810190808035906020019082018035906020019190919293919293905050506123c4565b005b34801561094e57600080fd5b50610983600480360381019080803573ffffffffffffffffffffffffffffffffffffffff1690602001909291905050506125c2565b005b34801561099157600080fd5b506109b06004803603810190808035906020019092919050505061271a565b6040518086151515158152602001858152602001848152602001838152602001821515151581526020019550505050505060405180910390f35b600160009054906101000a900473ffffffffffffffffffffffffffffffffffffffff1673ffffffffffffffffffffffffffffffffffffffff163373ffffffffffffffffffffffffffffffffffffffff16141515610a4657600080fd5b3373ffffffffffffffffffffffffffffffffffffffff166108fc3073ffffffffffffffffffffffffffffffffffffffff16319081150290604051600060405180830381858888f19350505050158015610aa3573d6000803e3d6000fd5b50565b600080600080883373ffffffffffffffffffffffffffffffffffffffff166004600083815260200190815260200160002060009054906101000a900473ffffffffffffffffffffffffffffffffffffffff1673ffffffffffffffffffffffffffffffffffffffff16141515610b1a57600080fd5b600160149054906101000a900460ff16151515610b3657600080fd5b60008a10158015610b4b57506003805490508a105b1515610b5657600080fd5b8686905089899050141515610b6a57600080fd5b60038a815481101515610b7957fe5b90600052602060002090600502019450600093505b88889050841015610c68578888858181101515610ba757fe5b90506020020135925060008310158015610bc45750846001015483105b1515610bcf57600080fd5b84600401600084815260200190815260200160002091508686858181101515610bf457fe5b90506020020135151515158260020160009054906101000a900460ff161515141515610c4d578686858181101515610c2857fe5b9050602002013515158260020160006101000a81548160ff0219169083151502179055505b610c616001856127ea90919063ffffffff16565b9350610b8e565b897f9915228889c3fc580aaf9ef33f0526ed631d30e98de792b8be111266ac1c257142338c8c8c8c604051808781526020018673ffffffffffffffffffffffffffffffffffffffff1673ffffffffffffffffffffffffffffffffffffffff168152602001806020018060200183810383528787828181526020019250602002808284378201915050838103825285858281815260200192506020028082843782019150509850505050505050505060405180910390a250505050505050505050565b600160009054906101000a900473ffffffffffffffffffffffffffffffffffffffff1673ffffffffffffffffffffffffffffffffffffffff163373ffffffffffffffffffffffffffffffffffffffff16141515610d8657600080fd5b600160149054906101000a900460ff161515610da157600080fd5b6000600160146101000a81548160ff0219169083151502179055507f7805862f689e2f13df9f062ff482ad3ad112aca9e0847911ed832e158c525b3360405160405180910390a1565b6060806060600080606080606060008060038b815481101515610e0957fe5b906000526020600020906005020196508660010154955085604051908082528060200260200182016040528015610e4f5781602001602082028038833980820191505090505b50945085604051908082528060200260200182016040528015610e815781602001602082028038833980820191505090505b50935085604051908082528060200260200182016040528015610eb35781602001602082028038833980820191505090505b509250600091505b85821015610f6b57866004016000838152602001908152602001600020905080600001548583815181101515610eed57fe5b906020019060200201818152505080600101548483815181101515610f0e57fe5b90602001906020020181815250508060020160009054906101000a900460ff168383815181101515610f3c57fe5b9060200190602002019015159081151581525050610f646001836127ea90919063ffffffff16565b9150610ebb565b848484995099509950505050505050509193909250565b600160149054906101000a900460ff1681565b6000806000806000808610158015610fb1575060038054905086105b1515610fbc57600080fd5b600386815481101515610fcb57fe5b9060005260206000209060050201925060009450600091505b82600201548210156110865782600301600083815260200190815260200160002090503373ffffffffffffffffffffffffffffffffffffffff168160000160009054906101000a900473ffffffffffffffffffffffffffffffffffffffff1673ffffffffffffffffffffffffffffffffffffffff16141561106b5760019450819350611086565b61107f6001836127ea90919063ffffffff16565b9150610fe4565b505050915091565b60025481565b600080600160009054906101000a900473ffffffffffffffffffffffffffffffffffffffff1673ffffffffffffffffffffffffffffffffffffffff163373ffffffffffffffffffffffffffffffffffffffff161415156110f357600080fd5b600254831415151561110457600080fd5b6002549050826002819055507f88baf3d55c73de3daf241b46e77dc4fbdeb5e9949c4ddff3761406b954134de0423383600254604051808581526020018473ffffffffffffffffffffffffffffffffffffffff1673ffffffffffffffffffffffffffffffffffffffff16815260200183815260200182815260200194505050505060405180910390a1600254915050919050565b600160009054906101000a900473ffffffffffffffffffffffffffffffffffffffff1673ffffffffffffffffffffffffffffffffffffffff163373ffffffffffffffffffffffffffffffffffffffff161415156111f457600080fd5b600160149054906101000a900460ff1615151561121057600080fd5b60018060146101000a81548160ff0219169083151502179055507f6985a02210a168e66602d3235cb6db0e70f92b3ba4d376a33c0f3d9434bff62560405160405180910390a1565b600160009054906101000a900473ffffffffffffffffffffffffffffffffffffffff1681565b600160149054906101000a900460ff1615151561129a57600080fd5b60025434101515156112ab57600080fd5b81819050848490501415156112bf57600080fd5b600160009054906101000a900473ffffffffffffffffffffffffffffffffffffffff1673ffffffffffffffffffffffffffffffffffffffff166108fc6002549081150290604051600060405180830381858888f19350505050158015611329573d6000803e3d6000fd5b5060006113416002543461280690919063ffffffff16565b11156113a3573373ffffffffffffffffffffffffffffffffffffffff166108fc6113766002543461280690919063ffffffff16565b9081150290604051600060405180830381858888f193505050501580156113a1573d6000803e3d6000fd5b505b61143e86868080601f01602080910402602001604051908101604052809392919081815260200183838082843782019150505050505085858080602002602001604051908101604052809392919081815260200183836020028082843782019150505050505084848080602002602001604051908101604052809392919081815260200183836020028082843782019150505050505061281f565b505050505050565b606080606060008060608060606000808a3373ffffffffffffffffffffffffffffffffffffffff166004600083815260200190815260200160002060009054906101000a900473ffffffffffffffffffffffffffffffffffffffff1673ffffffffffffffffffffffffffffffffffffffff161415156114c457600080fd5b60038c8154811015156114d357fe5b9060005260206000209060050201975087600201549650866040519080825280602002602001820160405280156115195781602001602082028038833980820191505090505b5095508660405190808252806020026020018201604052801561154b5781602001602082028038833980820191505090505b5094508660405190808252806020026020018201604052801561157d5781602001602082028038833980820191505090505b509350600092505b868310156116705787600301600084815260200190815260200160002091508160000160009054906101000a900473ffffffffffffffffffffffffffffffffffffffff1686848151811015156115d757fe5b9060200190602002019073ffffffffffffffffffffffffffffffffffffffff16908173ffffffffffffffffffffffffffffffffffffffff16815250508160010154858481518110151561162657fe5b90602001906020020181815250508160020154848481518110151561164757fe5b90602001906020020181815250506116696001846127ea90919063ffffffff16565b9250611585565b8585859a509a509a5050505050505050509193909250565b600080600080600080600080600160149054906101000a900460ff161515156116b057600080fd5b60008a101580156116c557506003805490508a105b15156116d057600080fd5b60038a8154811015156116df57fe5b90600052602060002090600502019750600089101580156117035750876001015489105b151561170e57600080fd5b8760040160008a81526020019081526020016000209650600015158760020160009054906101000a900460ff16151514151561174957600080fd5b8660000154341015151561175c57600080fd5b600460008b815260200190815260200160002060009054906101000a900473ffffffffffffffffffffffffffffffffffffffff1673ffffffffffffffffffffffffffffffffffffffff166108fc88600001549081150290604051600060405180830381858888f193505050501580156117d9573d6000803e3d6000fd5b5060006117f388600001543461280690919063ffffffff16565b1115611857573373ffffffffffffffffffffffffffffffffffffffff166108fc61182a89600001543461280690919063ffffffff16565b9081150290604051600060405180830381858888f19350505050158015611855573d6000803e3d6000fd5b505b6118608a610f95565b80965081975050506001151586151514156119355787600301600086815260200190815260200160002093508360010154925083600201549150888460010181905550428460020181905550888a3373ffffffffffffffffffffffffffffffffffffffff167f58e8df1508156a02742ce0ddbe7f07efea0a069e9f3af45eacdd4462b6e80ce84287878d600001548e600101548c6002015460405180878152602001868152602001858152602001848152602001838152602001828152602001965050505050505060405180910390a4611a72565b4290506060604051908101604052803373ffffffffffffffffffffffffffffffffffffffff1681526020018a8152602001828152508860030160008a60020154815260200190815260200160002060008201518160000160006101000a81548173ffffffffffffffffffffffffffffffffffffffff021916908373ffffffffffffffffffffffffffffffffffffffff16021790555060208201518160010155604082015181600201559050506119f9600189600201546127ea90919063ffffffff16565b8860020181905550888a3373ffffffffffffffffffffffffffffffffffffffff167f97b9b1d05a99593c6513e3ba5138709b2699bdca0bad47048d558dd88058cddb428b600001548c60010154876040518085815260200184815260200183815260200182815260200194505050505060405180910390a45b50505050505050505050565b6060806000600160009054906101000a900473ffffffffffffffffffffffffffffffffffffffff1673ffffffffffffffffffffffffffffffffffffffff163373ffffffffffffffffffffffffffffffffffffffff16141515611adf57600080fd5b600380549050604051908082528060200260200182016040528015611b135781602001602082028038833980820191505090505b509150600090505b600380549050811015611b6057808282815181101515611b3757fe5b9060200190602002018181525050611b596001826127ea90919063ffffffff16565b9050611b1b565b819250505090565b60046020528060005260406000206000915054906101000a900473ffffffffffffffffffffffffffffffffffffffff1681565b600080836040518082805190602001908083835b602083101515611bd45780518252602082019150602081019050602083039250611baf565b6001836020036101000a0380198251168184511680821785525050505050509050019150509081526020016040518091039020826040518082805190602001908083835b602083101515611c3d5780518252602082019150602081019050602083039250611c18565b6001836020036101000a038019825116818451168082178552505050505050905001915050908152602001604051809103902060009054906101000a900460ff16905092915050565b6040805190810160405280600881526020017f5061757361626c650000000000000000000000000000000000000000000000008152506040805190810160405280600581526020017f312e392e30000000000000000000000000000000000000000000000000000000815250611cfc8282611b9b565b151515611d0857600080fd5b611d1183612c0c565b7fdd117a11c22118c9dee4b5a67ce578bc44529dce21ee0ccc439588fbb9fb4ea38282604051808060200180602001838103835285818151815260200191508051906020019080838360005b83811015611d78578082015181840152602081019050611d5d565b50505050905090810190601f168015611da55780820380516001836020036101000a031916815260200191505b50838103825284818151815260200191508051906020019080838360005b83811015611dde578082015181840152602081019050611dc3565b50505050905090810190601f168015611e0b5780820380516001836020036101000a031916815260200191505b5094505050505060405180910390a160016000836040518082805190602001908083835b602083101515611e545780518252602082019150602081019050602083039250611e2f565b6001836020036101000a0380198251168184511680821785525050505050509050019150509081526020016040518091039020826040518082805190602001908083835b602083101515611ebd5780518252602082019150602081019050602083039250611e98565b6001836020036101000a038019825116818451168082178552505050505050905001915050908152602001604051809103902060006101000a81548160ff021916908315150217905550505050565b606080600080600560003373ffffffffffffffffffffffffffffffffffffffff1673ffffffffffffffffffffffffffffffffffffffff16815260200190815260200160002054604051908082528060200260200182016040528015611f805781602001602082028038833980820191505090505b50925060009150600090505b60038054905081101561204f573373ffffffffffffffffffffffffffffffffffffffff166004600083815260200190815260200160002060009054906101000a900473ffffffffffffffffffffffffffffffffffffffff1673ffffffffffffffffffffffffffffffffffffffff1614156120345780838381518110151561200f57fe5b90602001906020020181815250506120316001836127ea90919063ffffffff16565b91505b6120486001826127ea90919063ffffffff16565b9050611f8c565b82935050505090565b6040805190810160405280600a81526020017f417070466163746f7279000000000000000000000000000000000000000000008152506040805190810160405280600181526020017f30000000000000000000000000000000000000000000000000000000000000008152506120ce8282611b9b565b1515156120da57600080fd5b6120e384611c86565b826002819055507fdd117a11c22118c9dee4b5a67ce578bc44529dce21ee0ccc439588fbb9fb4ea38282604051808060200180602001838103835285818151815260200191508051906020019080838360005b83811015612151578082015181840152602081019050612136565b50505050905090810190601f16801561217e5780820380516001836020036101000a031916815260200191505b50838103825284818151815260200191508051906020019080838360005b838110156121b757808201518184015260208101905061219c565b50505050905090810190601f1680156121e45780820380516001836020036101000a031916815260200191505b5094505050505060405180910390a160016000836040518082805190602001908083835b60208310151561222d5780518252602082019150602081019050602083039250612208565b6001836020036101000a0380198251168184511680821785525050505050509050019150509081526020016040518091039020826040518082805190602001908083835b6020831015156122965780518252602082019150602081019050602083039250612271565b6001836020036101000a038019825116818451168082178552505050505050905001915050908152602001604051809103902060006101000a81548160ff02191690831515021790555050505050565b606060008060006003858154811015156122fc57fe5b906000526020600020906005020190508060000181600101548260020154828054600181600116156101000203166002900480601f0160208091040260200160405190810160405280929190818152602001828054600181600116156101000203166002900480156123af5780601f10612384576101008083540402835291602001916123af565b820191906000526020600020905b81548152906001019060200180831161239257829003601f168201915b50505050509250935093509350509193909250565b606080600160149054906101000a900460ff161515156123e357600080fd5b60025434101515156123f457600080fd5b600160009054906101000a900473ffffffffffffffffffffffffffffffffffffffff1673ffffffffffffffffffffffffffffffffffffffff166108fc6002549081150290604051600060405180830381858888f1935050505015801561245e573d6000803e3d6000fd5b5060006124766002543461280690919063ffffffff16565b11156124d8573373ffffffffffffffffffffffffffffffffffffffff166108fc6124ab6002543461280690919063ffffffff16565b9081150290604051600060405180830381858888f193505050501580156124d6573d6000803e3d6000fd5b505b60016040519080825280602002602001820160405280156125085781602001602082028038833980820191505090505b509150600082600081518110151561251c57fe5b9060200190602002018181525050600160405190808252806020026020018201604052801561255a5781602001602082028038833980820191505090505b50905063bbf81e0081600081518110151561257157fe5b90602001906020020181815250506125bc84848080601f016020809104026020016040519081016040528093929190818152602001838380828437820191505050505050838361281f565b50505050565b600160009054906101000a900473ffffffffffffffffffffffffffffffffffffffff1673ffffffffffffffffffffffffffffffffffffffff163373ffffffffffffffffffffffffffffffffffffffff1614151561261e57600080fd5b600073ffffffffffffffffffffffffffffffffffffffff168173ffffffffffffffffffffffffffffffffffffffff161415151561265a57600080fd5b8073ffffffffffffffffffffffffffffffffffffffff16600160009054906101000a900473ffffffffffffffffffffffffffffffffffffffff1673ffffffffffffffffffffffffffffffffffffffff167f8be0079c531659141344cd1fd0a4f28419497f9722a3daafe3b4186f6b6457e060405160405180910390a380600160006101000a81548173ffffffffffffffffffffffffffffffffffffffff021916908373ffffffffffffffffffffffffffffffffffffffff16021790555050565b60008060008060008060008060006127318a610f95565b809550819a5050506001151589151514156127cc5760038a81548110151561275557fe5b9060005260206000209060050201925082600301600085815260200190815260200160002091508160010154975082600401600089815260200190815260200160002090508060010154965081600201549550426127c4836002015483600101546127ea90919063ffffffff16565b1194506127dd565b600097506000965060009550600094505b5050505091939590929450565b600081830190508281101515156127fd57fe5b80905092915050565b600082821115151561281457fe5b818303905092915050565b6000806128b36001600360606040519081016040528089815260200188518152602001600081525090806001815401808255809150509060018203906000526020600020906005020160009091929091909150600082015181600001908051906020019061288e929190612eca565b506020820151816001015560408201518160020155505061280690919063ffffffff16565b9150336004600084815260200190815260200160002060006101000a81548173ffffffffffffffffffffffffffffffffffffffff021916908373ffffffffffffffffffffffffffffffffffffffff16021790555061295a6001600560003373ffffffffffffffffffffffffffffffffffffffff1673ffffffffffffffffffffffffffffffffffffffff168152602001908152602001600020546127ea90919063ffffffff16565b600560003373ffffffffffffffffffffffffffffffffffffffff1673ffffffffffffffffffffffffffffffffffffffff16815260200190815260200160002081905550600090505b6003828154811015156129b157fe5b906000526020600020906005020160010154811015612a9a5760606040519081016040528085838151811015156129e457fe5b9060200190602002015181526020018483815181101515612a0157fe5b90602001906020020151815260200160001515815250600383815481101515612a2657fe5b90600052602060002090600502016004016000838152602001908152602001600020600082015181600001556020820151816001015560408201518160020160006101000a81548160ff021916908315150217905550905050612a936001826127ea90919063ffffffff16565b90506129a2565b817f631da1651c04ffead99053a9d1c3424a67b2bc55b5c80c0ed80616316495623b4233888888604051808681526020018573ffffffffffffffffffffffffffffffffffffffff1673ffffffffffffffffffffffffffffffffffffffff168152602001806020018060200180602001848103845287818151815260200191508051906020019080838360005b83811015612b41578082015181840152602081019050612b26565b50505050905090810190601f168015612b6e5780820380516001836020036101000a031916815260200191505b50848103835286818151815260200191508051906020019060200280838360005b83811015612baa578082015181840152602081019050612b8f565b50505050905001848103825285818151815260200191508051906020019060200280838360005b83811015612bec578082015181840152602081019050612bd1565b505050509050019850505050505050505060405180910390a25050505050565b6040805190810160405280600781526020017f4f776e61626c65000000000000000000000000000000000000000000000000008152506040805190810160405280600581526020017f312e392e30000000000000000000000000000000000000000000000000000000815250612c828282611b9b565b151515612c8e57600080fd5b82600160006101000a81548173ffffffffffffffffffffffffffffffffffffffff021916908373ffffffffffffffffffffffffffffffffffffffff1602179055507fdd117a11c22118c9dee4b5a67ce578bc44529dce21ee0ccc439588fbb9fb4ea38282604051808060200180602001838103835285818151815260200191508051906020019080838360005b83811015612d36578082015181840152602081019050612d1b565b50505050905090810190601f168015612d635780820380516001836020036101000a031916815260200191505b50838103825284818151815260200191508051906020019080838360005b83811015612d9c578082015181840152602081019050612d81565b50505050905090810190601f168015612dc95780820380516001836020036101000a031916815260200191505b5094505050505060405180910390a160016000836040518082805190602001908083835b602083101515612e125780518252602082019150602081019050602083039250612ded565b6001836020036101000a0380198251168184511680821785525050505050509050019150509081526020016040518091039020826040518082805190602001908083835b602083101515612e7b5780518252602082019150602081019050602083039250612e56565b6001836020036101000a038019825116818451168082178552505050505050905001915050908152602001604051809103902060006101000a81548160ff021916908315150217905550505050565b828054600181600116156101000203166002900490600052602060002090601f016020900481019282601f10612f0b57805160ff1916838001178555612f39565b82800160010185558215612f39579182015b82811115612f38578251825591602001919060010190612f1d565b5b509050612f469190612f4a565b5090565b612f6c91905b80821115612f68576000816000905550600101612f50565b5090565b905600a165627a7a72305820e3ca707fa72039bab9d2e76412a5f1a4e9f96e8a5242d615379f2d0df65f85520029",
  "source": "pragma solidity ^0.4.21;\r\nimport \"./AppFactory.sol\";\r\nimport \"openzeppelin-zos/contracts/math/SafeMath.sol\";\r\n\r\ncontract License is AppFactory {\r\n  using SafeMath for uint256;\r\n\r\n  event NewCustomer(uint256 _applyTime, address indexed _applior, uint256 indexed _appId,  uint256 indexed _licenseId, uint256 _licenseFee, uint256 _licenseValidateTime, uint256 _LicenseStartTime);\r\n  event UpdateCustomer(uint256 _updateTime,address indexed _applior,  uint256 indexed _appId, uint256 _oldLicenseId, uint256 _oldLicenseStartTime, uint256 indexed _newLicenseId,  uint256 _newLicenseFee, uint256 _newLicenseValideTime, uint256 _newLicenseStartTime);\r\n\r\n  /* function initialize(address _sender, uint256 _appFee) isInitializer(\"License\", \"0\") public {\r\n    AppFactory.initialize(_sender,_appFee);\r\n  } */\r\n  function aCustomer(uint256 _appId) public view returns(bool isCustomer, uint256 customerId){\r\n    require(_appId >= 0 && _appId < apps.length);\r\n    App storage app = apps[_appId];\r\n    isCustomer = false;\r\n    for (uint256 i = 0; i < app.customersNum; i=i.add(1)) {\r\n      Customer storage customer = app.toCustomer[i];\r\n      if(customer.addr == msg.sender){\r\n        isCustomer = true;\r\n        customerId = i;\r\n        break;\r\n      }\r\n    }\r\n  }\r\n\r\n  function applyLicense (uint256 _appId,uint256 _licenseId) external payable whenNotPaused {\r\n    require(_appId >= 0 && _appId < apps.length);\r\n    App storage app = apps[_appId];\r\n    require(_licenseId >= 0 && _licenseId < app.licenseTypeNum);\r\n    LicenseType storage license = app.toLicenseType[_licenseId];\r\n\r\n    // could not apply license already offlineAppLicense\r\n    require(license.offline==false);\r\n    require(msg.value >= license.fee);\r\n    appToOwner[_appId].transfer(license.fee);\r\n    if(msg.value.sub(license.fee) > 0){\r\n      msg.sender.transfer(msg.value.sub(license.fee));\r\n    }\r\n    bool isCustomer;\r\n    uint256 customerId;\r\n    (isCustomer, customerId) = aCustomer(_appId);\r\n    if(isCustomer == true){\r\n      Customer storage customer = app.toCustomer[customerId];\r\n      uint256 oldLicenseId = customer.licenseId;\r\n      uint256 oldLicenseStartTime = customer.licenseStartTime;\r\n      customer.licenseId = _licenseId;\r\n      customer.licenseStartTime = now;\r\n      /* LicenseType storage oldLicense = app.toLicenseType[oldLicenseId]; */\r\n      emit UpdateCustomer(now, msg.sender, _appId, oldLicenseId, oldLicenseStartTime, _licenseId, license.fee, license.validateTime, customer.licenseStartTime);\r\n\r\n    }else{\r\n      uint256 licenseStartTime = now;\r\n      app.toCustomer[app.customersNum]= Customer(msg.sender,_licenseId,licenseStartTime);\r\n      app.customersNum = app.customersNum.add(1);\r\n      emit NewCustomer(now, msg.sender, _appId, _licenseId, license.fee, license.validateTime, licenseStartTime);\r\n    }\r\n  }\r\n\r\n  function getLicenseInfo(uint256 _appId) external view returns(bool isCustomer, uint256 licenseId,   uint256 licenseValidateTime, uint256 licenseStartTime, bool licenseValidate ){\r\n    uint256 customerId;\r\n    (isCustomer, customerId) = aCustomer(_appId);\r\n    if(isCustomer == true){\r\n      App storage app = apps[_appId];\r\n      Customer storage customer = app.toCustomer[customerId];\r\n      licenseId = customer.licenseId;\r\n      LicenseType storage license = app.toLicenseType[licenseId];\r\n      licenseValidateTime = license.validateTime;\r\n      licenseStartTime = customer.licenseStartTime;\r\n      licenseValidate = license.validateTime.add(customer.licenseStartTime) > uint256(now) ;\r\n    } else{\r\n      licenseId = 0;\r\n      licenseValidateTime = 0;\r\n      licenseStartTime = 0;\r\n      licenseValidate = false;\r\n    }\r\n  }\r\n  /* function () payable public {} */\r\n\r\n}\r\n",
  "sourcePath": "D:\\work\\creative\\smartContract\\licenseContract\\contracts\\License.sol",
  "compiler": {
    "name": "solc",
    "version": "0.4.24+commit.e67f0147.Emscripten.clang"
  },
  "schemaVersion": "2.0.1",
  "updatedAt": "2018-09-28T07:56:37.344Z"
}