{
  "contractName": "License",
  "abi": [
    {
      "constant": false,
      "inputs": [],
      "name": "unpause",
      "outputs": [],
      "payable": false,
      "stateMutability": "nonpayable",
      "type": "function"
    },
    {
      "constant": true,
      "inputs": [
        {
          "name": "_appId",
          "type": "uint256"
        }
      ],
      "name": "getAppLicenseList",
      "outputs": [
        {
          "name": "",
          "type": "uint256[]"
        },
        {
          "name": "",
          "type": "uint256[]"
        }
      ],
      "payable": false,
      "stateMutability": "view",
      "type": "function"
    },
    {
      "constant": true,
      "inputs": [],
      "name": "paused",
      "outputs": [
        {
          "name": "",
          "type": "bool"
        }
      ],
      "payable": false,
      "stateMutability": "view",
      "type": "function"
    },
    {
      "constant": true,
      "inputs": [],
      "name": "appFee",
      "outputs": [
        {
          "name": "",
          "type": "uint256"
        }
      ],
      "payable": false,
      "stateMutability": "view",
      "type": "function"
    },
    {
      "constant": false,
      "inputs": [],
      "name": "pause",
      "outputs": [],
      "payable": false,
      "stateMutability": "nonpayable",
      "type": "function"
    },
    {
      "constant": true,
      "inputs": [],
      "name": "owner",
      "outputs": [
        {
          "name": "",
          "type": "address"
        }
      ],
      "payable": false,
      "stateMutability": "view",
      "type": "function"
    },
    {
      "constant": false,
      "inputs": [
        {
          "name": "_name",
          "type": "string"
        },
        {
          "name": "_licenseFees",
          "type": "uint256[]"
        },
        {
          "name": "_licenseValidateTimes",
          "type": "uint256[]"
        }
      ],
      "name": "createApp",
      "outputs": [],
      "payable": true,
      "stateMutability": "payable",
      "type": "function"
    },
    {
      "constant": true,
      "inputs": [
        {
          "name": "_appId",
          "type": "uint256"
        }
      ],
      "name": "getAppCustomerList",
      "outputs": [
        {
          "name": "",
          "type": "address[]"
        },
        {
          "name": "",
          "type": "uint256[]"
        },
        {
          "name": "",
          "type": "uint256[]"
        }
      ],
      "payable": false,
      "stateMutability": "view",
      "type": "function"
    },
    {
      "constant": true,
      "inputs": [],
      "name": "getAllApps",
      "outputs": [
        {
          "name": "",
          "type": "uint256[]"
        }
      ],
      "payable": false,
      "stateMutability": "view",
      "type": "function"
    },
    {
      "constant": true,
      "inputs": [
        {
          "name": "",
          "type": "uint256"
        }
      ],
      "name": "appToOwner",
      "outputs": [
        {
          "name": "",
          "type": "address"
        }
      ],
      "payable": false,
      "stateMutability": "view",
      "type": "function"
    },
    {
      "constant": true,
      "inputs": [
        {
          "name": "contractName",
          "type": "string"
        },
        {
          "name": "migrationId",
          "type": "string"
        }
      ],
      "name": "isMigrated",
      "outputs": [
        {
          "name": "",
          "type": "bool"
        }
      ],
      "payable": false,
      "stateMutability": "view",
      "type": "function"
    },
    {
      "constant": false,
      "inputs": [
        {
          "name": "_sender",
          "type": "address"
        }
      ],
      "name": "initialize",
      "outputs": [],
      "payable": false,
      "stateMutability": "nonpayable",
      "type": "function"
    },
    {
      "constant": true,
      "inputs": [],
      "name": "getYourApps",
      "outputs": [
        {
          "name": "",
          "type": "uint256[]"
        }
      ],
      "payable": false,
      "stateMutability": "view",
      "type": "function"
    },
    {
      "constant": true,
      "inputs": [
        {
          "name": "_appId",
          "type": "uint256"
        }
      ],
      "name": "getAppBrief",
      "outputs": [
        {
          "name": "",
          "type": "string"
        },
        {
          "name": "",
          "type": "uint256"
        },
        {
          "name": "",
          "type": "uint256"
        }
      ],
      "payable": false,
      "stateMutability": "view",
      "type": "function"
    },
    {
      "constant": false,
      "inputs": [
        {
          "name": "_name",
          "type": "string"
        }
      ],
      "name": "createFreeApp",
      "outputs": [],
      "payable": true,
      "stateMutability": "payable",
      "type": "function"
    },
    {
      "constant": false,
      "inputs": [
        {
          "name": "newOwner",
          "type": "address"
        }
      ],
      "name": "transferOwnership",
      "outputs": [],
      "payable": false,
      "stateMutability": "nonpayable",
      "type": "function"
    },
    {
      "payable": true,
      "stateMutability": "payable",
      "type": "fallback"
    },
    {
      "anonymous": false,
      "inputs": [
        {
          "indexed": false,
          "name": "_applyTime",
          "type": "uint256"
        },
        {
          "indexed": true,
          "name": "_applior",
          "type": "address"
        },
        {
          "indexed": true,
          "name": "_appId",
          "type": "uint256"
        },
        {
          "indexed": true,
          "name": "_licenseId",
          "type": "uint256"
        },
        {
          "indexed": false,
          "name": "_licenseFee",
          "type": "uint256"
        },
        {
          "indexed": false,
          "name": "_licenseValidateTime",
          "type": "uint256"
        },
        {
          "indexed": false,
          "name": "_LicenseStartTime",
          "type": "uint256"
        }
      ],
      "name": "NewCustomer",
      "type": "event"
    },
    {
      "anonymous": false,
      "inputs": [
        {
          "indexed": false,
          "name": "_updateTime",
          "type": "uint256"
        },
        {
          "indexed": true,
          "name": "_applior",
          "type": "address"
        },
        {
          "indexed": true,
          "name": "_appId",
          "type": "uint256"
        },
        {
          "indexed": false,
          "name": "_oldLicenseId",
          "type": "uint256"
        },
        {
          "indexed": false,
          "name": "_oldLicenseStartTime",
          "type": "uint256"
        },
        {
          "indexed": true,
          "name": "_newLicenseId",
          "type": "uint256"
        },
        {
          "indexed": false,
          "name": "_newLicenseFee",
          "type": "uint256"
        },
        {
          "indexed": false,
          "name": "_newLicenseValideTime",
          "type": "uint256"
        },
        {
          "indexed": false,
          "name": "_newLicenseStartTime",
          "type": "uint256"
        }
      ],
      "name": "UpdateCustomer",
      "type": "event"
    },
    {
      "anonymous": false,
      "inputs": [
        {
          "indexed": false,
          "name": "_creationTime",
          "type": "uint256"
        },
        {
          "indexed": false,
          "name": "_creator",
          "type": "address"
        },
        {
          "indexed": false,
          "name": "_appId",
          "type": "uint256"
        },
        {
          "indexed": false,
          "name": "_appName",
          "type": "string"
        },
        {
          "indexed": false,
          "name": "_licenseFees",
          "type": "uint256[]"
        },
        {
          "indexed": false,
          "name": "_licenseValidateTimes",
          "type": "uint256[]"
        }
      ],
      "name": "NewApp",
      "type": "event"
    },
    {
      "anonymous": false,
      "inputs": [],
      "name": "Pause",
      "type": "event"
    },
    {
      "anonymous": false,
      "inputs": [],
      "name": "Unpause",
      "type": "event"
    },
    {
      "anonymous": false,
      "inputs": [
        {
          "indexed": true,
          "name": "previousOwner",
          "type": "address"
        },
        {
          "indexed": true,
          "name": "newOwner",
          "type": "address"
        }
      ],
      "name": "OwnershipTransferred",
      "type": "event"
    },
    {
      "anonymous": false,
      "inputs": [
        {
          "indexed": false,
          "name": "contractName",
          "type": "string"
        },
        {
          "indexed": false,
          "name": "migrationId",
          "type": "string"
        }
      ],
      "name": "Migrated",
      "type": "event"
    },
    {
      "constant": true,
      "inputs": [
        {
          "name": "_appId",
          "type": "uint256"
        }
      ],
      "name": "aCustomer",
      "outputs": [
        {
          "name": "isCustomer",
          "type": "bool"
        },
        {
          "name": "customerId",
          "type": "uint256"
        }
      ],
      "payable": false,
      "stateMutability": "view",
      "type": "function"
    },
    {
      "constant": false,
      "inputs": [
        {
          "name": "_appId",
          "type": "uint256"
        },
        {
          "name": "_licenseId",
          "type": "uint256"
        }
      ],
      "name": "applyLicense",
      "outputs": [],
      "payable": true,
      "stateMutability": "payable",
      "type": "function"
    },
    {
      "constant": true,
      "inputs": [
        {
          "name": "_appId",
          "type": "uint256"
        }
      ],
      "name": "getLicenseInfo",
      "outputs": [
        {
          "name": "isCustomer",
          "type": "bool"
        },
        {
          "name": "licenseId",
          "type": "uint256"
        },
        {
          "name": "licenseValidateTime",
          "type": "uint256"
        },
        {
          "name": "licenseStartTime",
          "type": "uint256"
        },
        {
          "name": "licenseValidate",
          "type": "bool"
        }
      ],
      "payable": false,
      "stateMutability": "view",
      "type": "function"
    },
    {
      "constant": false,
      "inputs": [],
      "name": "claim",
      "outputs": [],
      "payable": false,
      "stateMutability": "nonpayable",
      "type": "function"
    }
  ],
  "bytecode": "0x60806040526000600160146101000a81548160ff02191690831515021790555034801561002b57600080fd5b5061283b8061003b6000396000f300608060405260043610610112576000357c0100000000000000000000000000000000000000000000000000000000900463ffffffff1680633f4ba83a146101145780634e71d92d1461012b578063598528c2146101425780635c975abb1461020c5780636ca848121461023b57806370160fc5146102875780638456cb59146102b25780638da5cb5b146102c95780639d22b68814610320578063a2a8c2d01461037e578063a47fceee14610490578063b4394aa6146104ba578063b786808614610526578063c0bac1a814610593578063c4d66de81461065a578063cb7986f91461069d578063cea40aa814610709578063e4a84379146107bd578063f2fde38b146107eb578063f3c2cf651461082e575b005b34801561012057600080fd5b50610129610893565b005b34801561013757600080fd5b50610140610953565b005b34801561014e57600080fd5b5061016d600480360381019080803590602001909291905050506109c8565b604051808060200180602001838103835285818151815260200191508051906020019060200280838360005b838110156101b4578082015181840152602081019050610199565b50505050905001838103825284818151815260200191508051906020019060200280838360005b838110156101f65780820151818401526020810190506101db565b5050505090500194505050505060405180910390f35b34801561021857600080fd5b50610221610b5f565b604051808215151515815260200191505060405180910390f35b34801561024757600080fd5b5061026660048036038101908080359060200190929190505050610b72565b60405180831515151581526020018281526020019250505060405180910390f35b34801561029357600080fd5b5061029c610c6b565b6040518082815260200191505060405180910390f35b3480156102be57600080fd5b506102c7610c76565b005b3480156102d557600080fd5b506102de610d36565b604051808273ffffffffffffffffffffffffffffffffffffffff1673ffffffffffffffffffffffffffffffffffffffff16815260200191505060405180910390f35b61037c600480360381019080803590602001908201803590602001919091929391929390803590602001908201803590602001919091929391929390803590602001908201803590602001919091929391929390505050610d5c565b005b34801561038a57600080fd5b506103a960048036038101908080359060200190929190505050610f38565b60405180806020018060200180602001848103845287818151815260200191508051906020019060200280838360005b838110156103f45780820151818401526020810190506103d9565b50505050905001848103835286818151815260200191508051906020019060200280838360005b8381101561043657808201518184015260208101905061041b565b50505050905001848103825285818151815260200191508051906020019060200280838360005b8381101561047857808201518184015260208101905061045d565b50505050905001965050505050505060405180910390f35b6104b8600480360381019080803590602001909291908035906020019092919050505061117a565b005b3480156104c657600080fd5b506104cf61154c565b6040518080602001828103825283818151815260200191508051906020019060200280838360005b838110156105125780820151818401526020810190506104f7565b505050509050019250505060405180910390f35b34801561053257600080fd5b5061055160048036038101908080359060200190929190505050611636565b604051808273ffffffffffffffffffffffffffffffffffffffff1673ffffffffffffffffffffffffffffffffffffffff16815260200191505060405180910390f35b34801561059f57600080fd5b50610640600480360381019080803590602001908201803590602001908080601f0160208091040260200160405190810160405280939291908181526020018383808284378201915050505050509192919290803590602001908201803590602001908080601f0160208091040260200160405190810160405280939291908181526020018383808284378201915050505050509192919290505050611669565b604051808215151515815260200191505060405180910390f35b34801561066657600080fd5b5061069b600480360381019080803573ffffffffffffffffffffffffffffffffffffffff169060200190929190505050611754565b005b3480156106a957600080fd5b506106b26119da565b6040518080602001828103825283818151815260200191508051906020019060200280838360005b838110156106f55780820151818401526020810190506106da565b505050509050019250505060405180910390f35b34801561071557600080fd5b5061073460048036038101908080359060200190929190505050611b26565b6040518080602001848152602001838152602001828103825285818151815260200191508051906020019080838360005b83811015610780578082015181840152602081019050610765565b50505050905090810190601f1680156107ad5780820380516001836020036101000a031916815260200191505b5094505050505060405180910390f35b6107e9600480360381019080803590602001908201803590602001919091929391929390505050611c73565b005b3480156107f757600080fd5b5061082c600480360381019080803573ffffffffffffffffffffffffffffffffffffffff169060200190929190505050611e85565b005b34801561083a57600080fd5b5061085960048036038101908080359060200190929190505050611fdd565b6040518086151515158152602001858152602001848152602001838152602001821515151581526020019550505050505060405180910390f35b600160009054906101000a900473ffffffffffffffffffffffffffffffffffffffff1673ffffffffffffffffffffffffffffffffffffffff163373ffffffffffffffffffffffffffffffffffffffff161415156108ef57600080fd5b600160149054906101000a900460ff16151561090a57600080fd5b6000600160146101000a81548160ff0219169083151502179055507f7805862f689e2f13df9f062ff482ad3ad112aca9e0847911ed832e158c525b3360405160405180910390a1565b600160009054906101000a900473ffffffffffffffffffffffffffffffffffffffff1673ffffffffffffffffffffffffffffffffffffffff163373ffffffffffffffffffffffffffffffffffffffff161415156109af57600080fd5b3373ffffffffffffffffffffffffffffffffffffffff16ff5b606080600080606080600080883373ffffffffffffffffffffffffffffffffffffffff166003600083815260200190815260200160002060009054906101000a900473ffffffffffffffffffffffffffffffffffffffff1673ffffffffffffffffffffffffffffffffffffffff16141515610a4257600080fd5b60028a815481101515610a5157fe5b906000526020600020906005020196508660010154955085604051908082528060200260200182016040528015610a975781602001602082028038833980820191505090505b50945085604051908082528060200260200182016040528015610ac95781602001602082028038833980820191505090505b509350600092505b85831015610b4d57866004016000848152602001908152602001600020915081600001548584815181101515610b0357fe5b906020019060200201818152505081600101548484815181101515610b2457fe5b9060200190602002018181525050610b466001846120ad90919063ffffffff16565b9250610ad1565b84849850985050505050505050915091565b600160149054906101000a900460ff1681565b6000806000806000808610158015610b8e575060028054905086105b1515610b9957600080fd5b600286815481101515610ba857fe5b9060005260206000209060050201925060009450600091505b8260020154821015610c635782600301600083815260200190815260200160002090503373ffffffffffffffffffffffffffffffffffffffff168160000160009054906101000a900473ffffffffffffffffffffffffffffffffffffffff1673ffffffffffffffffffffffffffffffffffffffff161415610c485760019450819350610c63565b610c5c6001836120ad90919063ffffffff16565b9150610bc1565b505050915091565b662386f26fc1000081565b600160009054906101000a900473ffffffffffffffffffffffffffffffffffffffff1673ffffffffffffffffffffffffffffffffffffffff163373ffffffffffffffffffffffffffffffffffffffff16141515610cd257600080fd5b600160149054906101000a900460ff16151515610cee57600080fd5b60018060146101000a81548160ff0219169083151502179055507f6985a02210a168e66602d3235cb6db0e70f92b3ba4d376a33c0f3d9434bff62560405160405180910390a1565b600160009054906101000a900473ffffffffffffffffffffffffffffffffffffffff1681565b600160149054906101000a900460ff16151515610d7857600080fd5b662386f26fc100003410151515610d8e57600080fd5b8181905084849050141515610da257600080fd5b600160009054906101000a900473ffffffffffffffffffffffffffffffffffffffff1673ffffffffffffffffffffffffffffffffffffffff166108fc662386f26fc100009081150290604051600060405180830381858888f19350505050158015610e11573d6000803e3d6000fd5b506000610e2e662386f26fc10000346120c990919063ffffffff16565b1115610e95573373ffffffffffffffffffffffffffffffffffffffff166108fc610e68662386f26fc10000346120c990919063ffffffff16565b9081150290604051600060405180830381858888f19350505050158015610e93573d6000803e3d6000fd5b505b610f3086868080601f0160208091040260200160405190810160405280939291908181526020018383808284378201915050505050508585808060200260200160405190810160405280939291908181526020018383602002808284378201915050505050508484808060200260200160405190810160405280939291908181526020018383602002808284378201915050505050506120e2565b505050505050565b606080606060008060608060606000808a3373ffffffffffffffffffffffffffffffffffffffff166003600083815260200190815260200160002060009054906101000a900473ffffffffffffffffffffffffffffffffffffffff1673ffffffffffffffffffffffffffffffffffffffff16141515610fb657600080fd5b60028c815481101515610fc557fe5b90600052602060002090600502019750876002015496508660405190808252806020026020018201604052801561100b5781602001602082028038833980820191505090505b5095508660405190808252806020026020018201604052801561103d5781602001602082028038833980820191505090505b5094508660405190808252806020026020018201604052801561106f5781602001602082028038833980820191505090505b509350600092505b868310156111625787600301600084815260200190815260200160002091508160000160009054906101000a900473ffffffffffffffffffffffffffffffffffffffff1686848151811015156110c957fe5b9060200190602002019073ffffffffffffffffffffffffffffffffffffffff16908173ffffffffffffffffffffffffffffffffffffffff16815250508160010154858481518110151561111857fe5b90602001906020020181815250508160020154848481518110151561113957fe5b906020019060200201818152505061115b6001846120ad90919063ffffffff16565b9250611077565b8585859a509a509a5050505050505050509193909250565b600080600080600080600080600160149054906101000a900460ff161515156111a257600080fd5b60008a101580156111b757506002805490508a105b15156111c257600080fd5b60028a8154811015156111d157fe5b90600052602060002090600502019750600089101580156111f55750876001015489105b151561120057600080fd5b8760040160008a815260200190815260200160002096508660000154341015151561122a57600080fd5b600360008b815260200190815260200160002060009054906101000a900473ffffffffffffffffffffffffffffffffffffffff1673ffffffffffffffffffffffffffffffffffffffff166108fc88600001549081150290604051600060405180830381858888f193505050501580156112a7573d6000803e3d6000fd5b5060006112c18860000154346120c990919063ffffffff16565b1115611325573373ffffffffffffffffffffffffffffffffffffffff166108fc6112f88960000154346120c990919063ffffffff16565b9081150290604051600060405180830381858888f19350505050158015611323573d6000803e3d6000fd5b505b61132e8a610b72565b80965081975050506001151586151514156114035787600301600086815260200190815260200160002093508360010154925083600201549150888460010181905550428460020181905550888a3373ffffffffffffffffffffffffffffffffffffffff167f58e8df1508156a02742ce0ddbe7f07efea0a069e9f3af45eacdd4462b6e80ce84287878d600001548e600101548c6002015460405180878152602001868152602001858152602001848152602001838152602001828152602001965050505050505060405180910390a4611540565b4290506060604051908101604052803373ffffffffffffffffffffffffffffffffffffffff1681526020018a8152602001828152508860030160008a60020154815260200190815260200160002060008201518160000160006101000a81548173ffffffffffffffffffffffffffffffffffffffff021916908373ffffffffffffffffffffffffffffffffffffffff16021790555060208201518160010155604082015181600201559050506114c7600189600201546120ad90919063ffffffff16565b8860020181905550888a3373ffffffffffffffffffffffffffffffffffffffff167f97b9b1d05a99593c6513e3ba5138709b2699bdca0bad47048d558dd88058cddb428b600001548c60010154876040518085815260200184815260200183815260200182815260200194505050505060405180910390a45b50505050505050505050565b6060806000600160009054906101000a900473ffffffffffffffffffffffffffffffffffffffff1673ffffffffffffffffffffffffffffffffffffffff163373ffffffffffffffffffffffffffffffffffffffff161415156115ad57600080fd5b6002805490506040519080825280602002602001820160405280156115e15781602001602082028038833980820191505090505b509150600090505b60028054905081101561162e5780828281518110151561160557fe5b90602001906020020181815250506116276001826120ad90919063ffffffff16565b90506115e9565b819250505090565b60036020528060005260406000206000915054906101000a900473ffffffffffffffffffffffffffffffffffffffff1681565b600080836040518082805190602001908083835b6020831015156116a2578051825260208201915060208101905060208303925061167d565b6001836020036101000a0380198251168184511680821785525050505050509050019150509081526020016040518091039020826040518082805190602001908083835b60208310151561170b57805182526020820191506020810190506020830392506116e6565b6001836020036101000a038019825116818451168082178552505050505050905001915050908152602001604051809103902060009054906101000a900460ff16905092915050565b6040805190810160405280600881526020017f5061757361626c650000000000000000000000000000000000000000000000008152506040805190810160405280600581526020017f312e392e300000000000000000000000000000000000000000000000000000008152506117ca8282611669565b1515156117d657600080fd5b6117df836124ac565b7fdd117a11c22118c9dee4b5a67ce578bc44529dce21ee0ccc439588fbb9fb4ea38282604051808060200180602001838103835285818151815260200191508051906020019080838360005b8381101561184657808201518184015260208101905061182b565b50505050905090810190601f1680156118735780820380516001836020036101000a031916815260200191505b50838103825284818151815260200191508051906020019080838360005b838110156118ac578082015181840152602081019050611891565b50505050905090810190601f1680156118d95780820380516001836020036101000a031916815260200191505b5094505050505060405180910390a160016000836040518082805190602001908083835b60208310151561192257805182526020820191506020810190506020830392506118fd565b6001836020036101000a0380198251168184511680821785525050505050509050019150509081526020016040518091039020826040518082805190602001908083835b60208310151561198b5780518252602082019150602081019050602083039250611966565b6001836020036101000a038019825116818451168082178552505050505050905001915050908152602001604051809103902060006101000a81548160ff021916908315150217905550505050565b606080600080600460003373ffffffffffffffffffffffffffffffffffffffff1673ffffffffffffffffffffffffffffffffffffffff16815260200190815260200160002054604051908082528060200260200182016040528015611a4e5781602001602082028038833980820191505090505b50925060009150600090505b600280549050811015611b1d573373ffffffffffffffffffffffffffffffffffffffff166003600083815260200190815260200160002060009054906101000a900473ffffffffffffffffffffffffffffffffffffffff1673ffffffffffffffffffffffffffffffffffffffff161415611b0257808383815181101515611add57fe5b9060200190602002018181525050611aff6001836120ad90919063ffffffff16565b91505b611b166001826120ad90919063ffffffff16565b9050611a5a565b82935050505090565b60606000806000843373ffffffffffffffffffffffffffffffffffffffff166003600083815260200190815260200160002060009054906101000a900473ffffffffffffffffffffffffffffffffffffffff1673ffffffffffffffffffffffffffffffffffffffff16141515611b9b57600080fd5b600286815481101515611baa57fe5b906000526020600020906005020191508160000182600101548360020154828054600181600116156101000203166002900480601f016020809104026020016040519081016040528092919081815260200182805460018160011615610100020316600290048015611c5d5780601f10611c3257610100808354040283529160200191611c5d565b820191906000526020600020905b815481529060010190602001808311611c4057829003601f168201915b5050505050925094509450945050509193909250565b606080600160149054906101000a900460ff16151515611c9257600080fd5b662386f26fc100003410151515611ca857600080fd5b600160009054906101000a900473ffffffffffffffffffffffffffffffffffffffff1673ffffffffffffffffffffffffffffffffffffffff166108fc662386f26fc100009081150290604051600060405180830381858888f19350505050158015611d17573d6000803e3d6000fd5b506000611d34662386f26fc10000346120c990919063ffffffff16565b1115611d9b573373ffffffffffffffffffffffffffffffffffffffff166108fc611d6e662386f26fc10000346120c990919063ffffffff16565b9081150290604051600060405180830381858888f19350505050158015611d99573d6000803e3d6000fd5b505b6001604051908082528060200260200182016040528015611dcb5781602001602082028038833980820191505090505b5091506000826000815181101515611ddf57fe5b90602001906020020181815250506001604051908082528060200260200182016040528015611e1d5781602001602082028038833980820191505090505b50905063bbf81e00816000815181101515611e3457fe5b9060200190602002018181525050611e7f84848080601f01602080910402602001604051908101604052809392919081815260200183838082843782019150505050505083836120e2565b50505050565b600160009054906101000a900473ffffffffffffffffffffffffffffffffffffffff1673ffffffffffffffffffffffffffffffffffffffff163373ffffffffffffffffffffffffffffffffffffffff16141515611ee157600080fd5b600073ffffffffffffffffffffffffffffffffffffffff168173ffffffffffffffffffffffffffffffffffffffff1614151515611f1d57600080fd5b8073ffffffffffffffffffffffffffffffffffffffff16600160009054906101000a900473ffffffffffffffffffffffffffffffffffffffff1673ffffffffffffffffffffffffffffffffffffffff167f8be0079c531659141344cd1fd0a4f28419497f9722a3daafe3b4186f6b6457e060405160405180910390a380600160006101000a81548173ffffffffffffffffffffffffffffffffffffffff021916908373ffffffffffffffffffffffffffffffffffffffff16021790555050565b6000806000806000806000806000611ff48a610b72565b809550819a50505060011515891515141561208f5760028a81548110151561201857fe5b906000526020600020906005020192508260030160008581526020019081526020016000209150816001015497508260040160008981526020019081526020016000209050806001015496508160020154955042612087836002015483600101546120ad90919063ffffffff16565b1194506120a0565b600097506000965060009550600094505b5050505091939590929450565b600081830190508281101515156120c057fe5b80905092915050565b60008282111515156120d757fe5b818303905092915050565b6000806121766001600260606040519081016040528089815260200188518152602001600081525090806001815401808255809150509060018203906000526020600020906005020160009091929091909150600082015181600001908051906020019061215192919061276a565b50602082015181600101556040820151816002015550506120c990919063ffffffff16565b9150336003600084815260200190815260200160002060006101000a81548173ffffffffffffffffffffffffffffffffffffffff021916908373ffffffffffffffffffffffffffffffffffffffff16021790555061221d6001600460003373ffffffffffffffffffffffffffffffffffffffff1673ffffffffffffffffffffffffffffffffffffffff168152602001908152602001600020546120ad90919063ffffffff16565b600460003373ffffffffffffffffffffffffffffffffffffffff1673ffffffffffffffffffffffffffffffffffffffff16815260200190815260200160002081905550600090505b60028281548110151561227457fe5b90600052602060002090600502016001015481101561233357604080519081016040528085838151811015156122a657fe5b90602001906020020151815260200184838151811015156122c357fe5b906020019060200201518152506002838154811015156122df57fe5b90600052602060002090600502016004016000838152602001908152602001600020600082015181600001556020820151816001015590505061232c6001826120ad90919063ffffffff16565b9050612265565b7f631da1651c04ffead99053a9d1c3424a67b2bc55b5c80c0ed80616316495623b423384888888604051808781526020018673ffffffffffffffffffffffffffffffffffffffff1673ffffffffffffffffffffffffffffffffffffffff168152602001858152602001806020018060200180602001848103845287818151815260200191508051906020019080838360005b838110156123e05780820151818401526020810190506123c5565b50505050905090810190601f16801561240d5780820380516001836020036101000a031916815260200191505b50848103835286818151815260200191508051906020019060200280838360005b8381101561244957808201518184015260208101905061242e565b50505050905001848103825285818151815260200191508051906020019060200280838360005b8381101561248b578082015181840152602081019050612470565b50505050905001995050505050505050505060405180910390a15050505050565b6040805190810160405280600781526020017f4f776e61626c65000000000000000000000000000000000000000000000000008152506040805190810160405280600581526020017f312e392e300000000000000000000000000000000000000000000000000000008152506125228282611669565b15151561252e57600080fd5b82600160006101000a81548173ffffffffffffffffffffffffffffffffffffffff021916908373ffffffffffffffffffffffffffffffffffffffff1602179055507fdd117a11c22118c9dee4b5a67ce578bc44529dce21ee0ccc439588fbb9fb4ea38282604051808060200180602001838103835285818151815260200191508051906020019080838360005b838110156125d65780820151818401526020810190506125bb565b50505050905090810190601f1680156126035780820380516001836020036101000a031916815260200191505b50838103825284818151815260200191508051906020019080838360005b8381101561263c578082015181840152602081019050612621565b50505050905090810190601f1680156126695780820380516001836020036101000a031916815260200191505b5094505050505060405180910390a160016000836040518082805190602001908083835b6020831015156126b2578051825260208201915060208101905060208303925061268d565b6001836020036101000a0380198251168184511680821785525050505050509050019150509081526020016040518091039020826040518082805190602001908083835b60208310151561271b57805182526020820191506020810190506020830392506126f6565b6001836020036101000a038019825116818451168082178552505050505050905001915050908152602001604051809103902060006101000a81548160ff021916908315150217905550505050565b828054600181600116156101000203166002900490600052602060002090601f016020900481019282601f106127ab57805160ff19168380011785556127d9565b828001600101855582156127d9579182015b828111156127d85782518255916020019190600101906127bd565b5b5090506127e691906127ea565b5090565b61280c91905b808211156128085760008160009055506001016127f0565b5090565b905600a165627a7a7230582054adad8ff87cecbb35dcf45dfb3565419cee75557c1d2acce3bd3585379267f80029",
  "source": "pragma solidity ^0.4.21;\r\nimport \"./AppFactory.sol\";\r\nimport \"openzeppelin-zos/contracts/math/SafeMath.sol\";\r\n\r\ncontract License is AppFactory {\r\n  using SafeMath for uint256;\r\n\r\n  event NewCustomer(uint256 _applyTime, address indexed _applior, uint256 indexed _appId,  uint256 indexed _licenseId, uint256 _licenseFee, uint256 _licenseValidateTime, uint256 _LicenseStartTime);\r\n  event UpdateCustomer(uint256 _updateTime,address indexed _applior,  uint256 indexed _appId, uint256 _oldLicenseId, uint256 _oldLicenseStartTime, uint256 indexed _newLicenseId,  uint256 _newLicenseFee, uint256 _newLicenseValideTime, uint256 _newLicenseStartTime);\r\n\r\n  /* function initialize(address _sender, uint256 _appFee) isInitializer(\"License\", \"0\") public {\r\n    AppFactory.initialize(_sender,_appFee);\r\n  } */\r\n  function aCustomer(uint256 _appId) public view returns(bool isCustomer, uint256 customerId){\r\n    require(_appId >= 0 && _appId < apps.length);\r\n    App storage app = apps[_appId];\r\n    isCustomer = false;\r\n    for (uint256 i = 0; i < app.customersNum; i=i.add(1)) {\r\n      Customer storage customer = app.toCustomer[i];\r\n      if(customer.addr == msg.sender){\r\n        isCustomer = true;\r\n        customerId = i;\r\n        break;\r\n      }\r\n    }\r\n  }\r\n\r\n  function applyLicense (uint256 _appId,uint256 _licenseId) external payable whenNotPaused {\r\n    require(_appId >= 0 && _appId < apps.length);\r\n    App storage app = apps[_appId];\r\n    require(_licenseId >= 0 && _licenseId < app.licenseTypeNum);\r\n    LicenseType storage license = app.toLicenseType[_licenseId];\r\n    require(msg.value >= license.fee);\r\n    appToOwner[_appId].transfer(license.fee);\r\n    if(msg.value.sub(license.fee) > 0){\r\n      msg.sender.transfer(msg.value.sub(license.fee));\r\n    }\r\n    bool isCustomer;\r\n    uint256 customerId;\r\n    (isCustomer, customerId) = aCustomer(_appId);\r\n    if(isCustomer == true){\r\n      Customer storage customer = app.toCustomer[customerId];\r\n      uint256 oldLicenseId = customer.licenseId;\r\n      uint256 oldLicenseStartTime = customer.licenseStartTime;\r\n      customer.licenseId = _licenseId;\r\n      customer.licenseStartTime = now;\r\n      /* LicenseType storage oldLicense = app.toLicenseType[oldLicenseId]; */\r\n      emit UpdateCustomer(now, msg.sender, _appId, oldLicenseId, oldLicenseStartTime, _licenseId, license.fee, license.validateTime, customer.licenseStartTime);\r\n\r\n    }else{\r\n      uint256 licenseStartTime = now;\r\n      app.toCustomer[app.customersNum]= Customer(msg.sender,_licenseId,licenseStartTime);\r\n      app.customersNum = app.customersNum.add(1);\r\n      emit NewCustomer(now, msg.sender, _appId, _licenseId, license.fee, license.validateTime, licenseStartTime);\r\n    }\r\n\r\n  }\r\n\r\n  function getLicenseInfo(uint256 _appId) external view returns(bool isCustomer, uint256 licenseId,  uint256 licenseValidateTime, uint256 licenseStartTime, bool licenseValidate ){\r\n    uint256 customerId;\r\n    (isCustomer, customerId) = aCustomer(_appId);\r\n    if(isCustomer == true){\r\n      App storage app = apps[_appId];\r\n      Customer storage customer = app.toCustomer[customerId];\r\n      licenseId = customer.licenseId;\r\n      LicenseType storage license = app.toLicenseType[licenseId];\r\n      licenseValidateTime = license.validateTime;\r\n      licenseStartTime = customer.licenseStartTime;\r\n      licenseValidate = license.validateTime.add(customer.licenseStartTime) > uint256(now) ;\r\n    } else{\r\n      licenseId = 0;\r\n      licenseValidateTime = 0;\r\n      licenseStartTime = 0;\r\n      licenseValidate = false;\r\n    }\r\n\r\n  }\r\n  function () payable public {}\r\n  function claim() external onlyOwner {\r\n      selfdestruct(msg.sender);\r\n  }\r\n}\r\n",
  "sourcePath": "D:\\work\\creative\\smartContract\\license\\contracts\\License.sol",
  "compiler": {
    "name": "solc",
    "version": "0.4.24+commit.e67f0147.Emscripten.clang"
  },
  "schemaVersion": "2.0.1",
  "updatedAt": "2018-09-06T07:45:50.803Z"
}